:020000040800F2
:1000000000500020890D00080D0D0008150D000896
:100010001D0D0008250D00082D0D00080000000032
:10002000000000000000000000000000350D000886
:10003000410D0008000000004D0D0008590D00089A
:10004000D10D0008D10D0008D10D0008D10D000818
:10005000D10D0008D10D0008D10D0008D10D000808
:10006000D10D000831050008D10D0008D10D0008A0
:10007000D10D0008D10D0008D10D0008D10D0008E8
:10008000D10D0008D10D0008D10D0008D10D0008D8
:10009000D10D0008D10D0008D10D0008650D000834
:1000A000D10D0008D10D0008D10D0008D10D0008B8
:1000B000D10D0008D10D0008D10D0008D10D0008A8
:1000C000D10D0008D10D0008D10D0008D10D000898
:1000D000D10D0008D10D0008D10D0008D10D000888
:1000E000D10D0008D10D0008D10D0008000000005E
:1000F0000000000000000000000000000000000000
:0C01000000000000000000005FF808F1A3
:10010C0010B5054C237833B9044B13B10448AFF345
:10011C0000800123237010BD180000200000000097
:10012C009C2F000808B5034B1BB103490348AFF3E0
:10013C00008008BD000000001C0000209C2F00085F
:10014C0080B582B000AF78607B6858687B681B888C
:10015C000022194601F062FB00BF0837BD4680BD86
:10016C0080B582B000AF78607B6858687B681B886C
:10017C000122194601F052FB00BF0837BD4680BD75
:10018C0080B584B000AF78600B46FB70FB7863F0F1
:10019C007F03DBB23B737868FFF7D2FF7B6898680C
:1001AC0007F10C016423012202F0D6F87868FFF7FE
:1001BC00D7FF00BF1037BD4680BD80B584B000AFFF
:1001CC007860C0233B737868FFF7BAFF7B68986848
:1001DC0007F10C016423012202F0BEF87868FFF7E6
:1001EC00BFFF00BF1037BD4680BD80B584B000AFE7
:1001FC007860084611461A460346FB700B46BB70E6
:10020C0013467B7005233B73FB787B73BB78BB7306
:10021C007B78FB737868FFF793FF7B68986807F12E
:10022C000C016423042202F097F87868FFF798FF1A
:10023C0000BF1037BD4680BD80B584B000AF78607C
:10024C000B46FB701346BB7002233B73FB787B732E
:10025C00BB78BB737868FFF773FF7B68986807F10E
:10026C000C016423032202F077F87868FFF778FF1B
:10027C0000BF1037BD4680BD80B586B000AFF860BA
:10028C000B467A60FB7203233B75FB7A7B75F8682F
:10029C00FFF756FFFB68986807F1140164230222EC
:1002AC0002F05AF8FB68986864230122796802F01E
:1002BC0097F9F868FFF754FF00BF1837BD4680BDAB
:1002CC0080B586B000AFF8600B467A60FB72FB7AA3
:1002DC0063F06F03DBB23B75F868FFF731FFFB6827
:1002EC00986807F114016423012202F035F8FB68C9
:1002FC00986864230D22796802F072F9F868FFF7A8
:10030C002FFF00BF1837BD4680BD80B586B000AF4B
:10031C00F8607A601A460B46FB721346BB72FB7A86
:10032C0043F04003DBB23B75F868FFF709FFFB684D
:10033C00986807F114016423012202F00DF8FB68A0
:10034C009868BB7A9AB26423796802F005F8F86869
:10035C00FFF706FF00BF1837BD4680BD80B582B0E1
:10036C0000AF78607868FFF728FF0A2000F08EFD58
:10037C0080220F217868FFF75FFF002260217868E8
:10038C00FFF75AFF05220C217868FFF755FF012271
:10039C002B217868FFF750FF002220217868FFF7A7
:1003AC004BFF002221217868FFF746FF0022222113
:1003BC007868FFF741FF002223217868FFF73CFFA4
:1003CC0003222A217868FFF737FF832229217868D6
:1003DC00FFF732FF032228217868FFF72DFF082250
:1003EC000F217868FFF728FF0A2000F04FFD00224C
:1003FC002D217868FFF720FF00222C217868FFF769
:10040C001BFF00BF0837BD4680BD80B582B000AF72
:10041C00786080220F217868FFF70EFFFF222021E1
:10042C007868FFF709FFE02221217868FFF704FFC5
:10043C0000220F217868FFF7FFFE052000F026FD53
:10044C0000BF0837BD4680BD80B582B000AF786074
:10045C000B46FB701346BB70BB785B01DAB2104BDA
:10046C001A7080220F217868FFF7E6FEFB781A4697
:10047C0000217868FFF7E0FE094B1B781A46012132
:10048C007868FFF7D9FE00220F217868FFF7D4FEB9
:10049C00052000F0FBFC00BF0837BD4680BD00BF47
:1004AC001B01002080B582B000AF78600B46FB705A
:1004BC001346BB70BB785B01DAB2094B1A70FB7840
:1004CC001A4631217868FFF7B7FE054B1B781A46A0
:1004DC0032217868FFF7B0FE00BF0837BD4680BDFB
:1004EC001C01002080B584B000AFF860B9601346E1
:1004FC00FB71FB79082B10D8FB791A463521F8686B
:10050C00FFF79AFEFB79BA680121F868FFF7FDFE48
:10051C000121F868FFF734FE00E000BF1037BD463C
:10052C0080BD000080B500AF082001F0A9F9024B96
:10053C0001221A7000BF80BD1A01002080B584B062
:10054C0000AF00F041FC00F035F900F02DFA00F09E
:10055C00CBF900F08BF900F0FDF90023BB720023FE
:10056C00FB730023BB7300237B7300233B738A4A0A
:10057C003B4692E803001860043319800023FB808B
:10058C00864BDB68854A23F02003D3600023FB7283
:10059C002AE0012000F07AFC804BDB687F4A43F0B4
:1005AC004003D3607D4BDB687C4A43F02003D3606F
:1005BC007A4B9B6803F08003002B09D0FB7A012255
:1005CC0002FA03F35AB297F90F3013435BB2FB7381
:1005DC00012000F05BFC714BDB68704A23F0400398
:1005EC00D360FB7A0133FB72FB7A072BD1D96C48B1
:1005FC00FFF7B4FE6A48FFF708FFFB7B072219469A
:10060C006748FFF721FFFB7B072219466448FFF779
:10061C0049FF3B46012219466148FFF763FF002260
:10062C0010215E4801F0FAF801224FF400715D4888
:10063C0001F0F4F801224FF480715A4801F0EEF801
:10064C0001228021574801F0E9F8C82000F01EFC77
:10065C007B7B002B05D04FF48071524801F0F6F8EB
:10066C0005E001224FF480714E4801F0D7F83B7B36
:10067C00002B04D0002280214A4801F0CFF8BB7B2C
:10068C005A1CBA730F2B10D90023BB7300233B7376
:10069C0000237B7301228021424801F0BFF83B46C6
:1006AC00012219463E48FFF71DFF3F4B1B7883F094
:1006BC000103DBB2002B6AD13B4B00221A7007F10D
:1006CC000A031A462C213648FFF7D6FD0023FF22D9
:1006DC002C213348FFF789FD344A00213048FFF7BD
:1006EC00EFFDBB7A5BB2002B53DB304B5B79002BFD
:1006FC0002D101233B73A8E72C4B5B79022B05D16C
:10070C007B7B002B02D000237B7343E0274B5B7970
:10071C00022B02D101237B7397E7244B5B79032BCC
:10072C0002D100237B7390E7204B5B79012B04D122
:10073C0010211A4801F08AF887E71C4B5B79042BCF
:10074C0083D14FF40071174801F080F80A2000F0B3
:10075C009DFB4FF40071134801F078F801233B73B3
:10076C000023BB73124B04221A700C4B9B681B09A1
:10077C00DBB203F00103DAB20D4B5A700C4BFF22C3
:10078C009A7003220A490648FFF7ACFE5DE700BFEA
:10079C005BE700BF59E700BFB42F00080008014019
:1007AC0000000020000C01401A0100200C01002068
:1007BC000401002080B594B000AF07F12803282273
:1007CC000021184602F0B8FB07F1140300221A604E
:1007DC005A609A60DA601A613B1D00221A605A60F6
:1007EC009A60DA600123BB624FF48033FB62002312
:1007FC003B630123BB6302237B644FF48033BB64F4
:10080C004FF4E013FB6407F12803184601F05AF883
:10081C000346002B01D000F059F90F237B61022312
:10082C00BB610023FB614FF480633B6200237B625E
:10083C0007F114030221184601F0C6FA0346002BF7
:10084C0001D000F043F902237B604FF40043FB60BE
:10085C003B1D184601F046FC0346002B01D000F06E
:10086C0035F900BF5037BD4680BD000080B584B05F
:10087C0000AF3B1D00221A605A609A60184B194A4F
:10088C001A60174B00229A60154B00221A73144BF6
:10089C0000221A75124B4FF46022DA61104B0022C1
:1008AC005A600F4B01221A610D4800F013FB0346EE
:1008BC00002B01D000F00AF903237B600123BB60FD
:1008CC000223FB603B1D1946054800F0DBFB034689
:1008DC00002B01D000F0FAF800BF1037BD4680BDE8
:1008EC00340000200024014080B500AF174B184A9B
:1008FC001A60164B4FF482725A60144B00229A60A5
:10090C00124B0022DA60114B00221A610F4B0022AD
:10091C005A610E4B4FF400729A610C4B3822DA611B
:10092C000A4B00221A62094B00225A62074B002222
:10093C009A62064B0A22DA62044801F089FC0346EB
:10094C00002B01D000F0C2F800BF80BD6400002075
:10095C000030014080B500AF114B124A1A60104BA9
:10096C004FF4E1325A600E4B00229A600C4B00227D
:10097C00DA600B4B00221A61094B0C225A61084BAE
:10098C0000229A61064B0022DA61054802F0F5F963
:10099C000346002B01D000F099F800BF80BD00BFCA
:1009AC00BC0000200038014080B588B000AF07F1D2
:1009BC00100300221A605A609A60DA603F4B9B6900
:1009CC003E4A43F0200393613C4B9B6903F02003A8
:1009DC00FB60FB68394B9B69384A43F00403936115
:1009EC00364B9B6903F00403BB60BB68334B9B69BC
:1009FC00324A43F008039361304B9B6903F00803C0
:100A0C007B607B68002248F270012D4800F006FFE5
:100A1C0000224FF460712B4800F000FF48F2700385
:100A2C003B6101237B610023BB610223FB6107F166
:100A3C0010031946224800F06DFD80233B61002312
:100A4C007B610023BB6107F1100319461C4800F0C1
:100A5C0061FD40233B611C4B7B610023BB6107F1B3
:100A6C0010031946174800F055FD80233B61012304
:100A7C007B610123BB610223FB6107F11003194663
:100A8C00104800F047FD4FF440733B6111237B612C
:100A9C000123BB610223FB6107F1100319460948CE
:100AAC0000F038FD00220021172000F0FCFC17207C
:100ABC0000F015FD00BF2037BD4680BD0010024080
:100ACC0000080140000C01400000211080B400AF70
:100ADC0072B600BF00BFFDE780B485B000AF154B08
:100AEC009B69144A43F001039361124B9B6903F019
:100AFC000103BB60BB680F4BDB690E4A43F08053AC
:100B0C00D3610C4BDB6903F080537B607B680A4B31
:100B1C005B68FB60FB6823F0E063FB60FB6843F001
:100B2C008063FB60044AFB68536000BF1437BD460A
:100B3C0080BC7047001002400000014080B588B0B6
:100B4C0000AF786007F1100300221A605A609A60B7
:100B5C00DA607B681B68144A934221D1134B9B6962
:100B6C00124A43F400739361104B9B6903F40073B6
:100B7C00FB60FB680D4B9B690C4A43F004039361CB
:100B8C000A4B9B6903F00403BB60BB6808233B6101
:100B9C0003237B6107F110031946054800F0BAFCEA
:100BAC0000BF2037BD4680BD00240140001002402C
:100BBC000008014080B58AB000AF786007F11403DB
:100BCC0000221A605A609A60DA607B681B68224ABD
:100BDC0093423DD1214B9B69204A43F4805393614E
:100BEC001E4B9B6903F480533B613B691B4B9B6918
:100BFC001A4A43F008039361184B9B6903F00803EE
:100C0C00FB60FB6828237B610223BB6103233B62EF
:100C1C0007F114031946124800F07CFC10237B6189
:100C2C000023BB610023FB6107F1140319460C4838
:100C3C0000F070FC0B4B5B687B627B6A43F0E063FB
:100C4C007B627B6A43F001037B62064A7B6A5360DA
:100C5C0000BF2837BD4680BD003001400010024067
:100C6C00000C01400000014080B588B000AF7860F6
:100C7C0007F1100300221A605A609A60DA607B68F0
:100C8C001B681C4A934231D11B4B9B691A4A43F493
:100C9C0080439361184B9B6903F48043FB60FB68B2
:100CAC00154B9B69144A43F004039361124B9B69E7
:100CBC0003F00403BB60BB684FF400733B61022379
:100CCC007B610323FB6107F1100319460B4800F00D
:100CDC0021FC4FF480633B6100237B610023BB61EB
:100CEC0007F110031946054800F014FC00BF20372B
:100CFC00BD4680BD00380140001002400008014094
:100D0C0080B400AF00BFFDE780B400AF00BFFDE7CB
:100D1C0080B400AF00BFFDE780B400AF00BFFDE7BB
:100D2C0080B400AF00BFFDE780B400AF00BFBD468C
:100D3C0080BC704780B400AF00BFBD4680BC70471C
:100D4C0080B400AF00BFBD4680BC704780B500AF1B
:100D5C0000F080F800BF80BD80B500AF402000F0EF
:100D6C008FFD024B01221A7000BF80BD1A010020BA
:100D7C0080B400AF00BFBD4680BC7047FFF7F8FFE2
:100D8C000B480C490C4A002302E0D458C4500433DD
:100D9C00C4188C42F9D3094A094C002301E01360B2
:100DAC000432A242FBD302F0CFF8FFF7C7FB704727
:100DBC000000002018000020F02F00081800002070
:100DCC0024010020FEE7000080B500AF084B1B6833
:100DDC00074A43F010031360032000F059FB0F2067
:100DEC0000F008F8FFF778FE0023184680BD00BF1E
:100DFC000020024080B582B000AF7860124B1A68B8
:100E0C00124B1B7819464FF47A73B3FBF1F3B2FB18
:100E1C00F3F3184600F071FB0346002B01D00123BD
:100E2C000EE07B680F2B0AD8002279684FF0FF3058
:100E3C0000F039FB064A7B681360002300E00123B5
:100E4C0018460837BD4680BD0C0000201400002059
:100E5C001000002080B400AF054B1B781A46054BE0
:100E6C001B681344034A136000BFBD4680BC704727
:100E7C00140000202001002080B400AF024B1B683E
:100E8C001846BD4680BC70472001002080B584B058
:100E9C0000AF7860FFF7F0FFB8607B68FB60FB6821
:100EAC00B3F1FF3F05D00A4B1B781A46FB6813447D
:100EBC00FB6000BFFFF7E0FF0246BB68D31AFA687D
:100ECC009A42F7D800BF00BF1037BD4680BD00BFA7
:100EDC001400002080B586B000AF78600023FB754D
:100EEC0000233B610023BB600023FB607B68002B6D
:100EFC0001D10123BEE07B689B68002B7B689B6A59
:100F0C00002B09D17B680022DA627B68002283F80F
:100F1C0024207868FFF712FE786800F0ABF90346DE
:100F2C00FB757B689B6A03F01003002B40F09980E3
:100F3C00FB7D002B40F095807B689B6A23F48853E3
:100F4C0023F0020343F002027B689A627B685A68C2
:100F5C007B68DB691A437B681B7B5B001343BA68B5
:100F6C001343BB607B689B68B3F5807F03D07B68C1
:100F7C009B68012B02D14FF4807300E000233A6987
:100F8C0013433B617B681B7D012B19D17B681B7B59
:100F9C00002B09D17B689B69013B5A033B691343C6
:100FAC0043F400633B610BE07B689B6A43F02002D7
:100FBC007B689A627B68DB6A43F001027B68DA62C9
:100FCC007B681B685B6823F469417B681B683A6922
:100FDC000A435A607B681B689A68284B13407A68EE
:100FEC001268B9680B4393607B689B68B3F5807F8C
:100FFC0003D07B689B68012B04D17B681B69013B88
:10100C001B05FB607B681B68DB6A23F470017B6843
:10101C001B68FA680A43DA627B681B689A68184B8B
:10102C001340BA689A420BD17B680022DA627B6863
:10103C009B6A23F0030343F001027B689A6218E079
:10104C007B689B6A23F0120343F010027B689A6260
:10105C007B68DB6A43F001027B68DA620123FB7573
:10106C0007E07B689B6A43F010027B689A6201235D
:10107C00FB75FB7D18461837BD4680BDFDF7E1FFBB
:10108C00FE0E1FFF80B485B000AF7860396000237E
:10109C00FB730023BB607B6893F82430012B01D1D8
:1010AC000223DCE07B68012283F824203B685B6828
:1010BC00062B1CD87B681B68596B3B685A68134617
:1010CC009B001344053B1F2202FA03F3DB43194038
:1010DC003B6818683B685A6813469B001344053BF1
:1010EC0000FA03F27B681B680A435A633CE03B68D6
:1010FC005B680C2B1CD87B681B68196B3B685A68A7
:10110C0013469B001344233B1F2202FA03F3DB43D9
:10111C0019403B6818683B685A6813469B00134497
:10112C00233B00FA03F27B681B680A431A631BE03B
:10113C007B681B68D96A3B685A6813469B0013444A
:10114C00413B1F2202FA03F3DB4319403B6818684A
:10115C003B685A6813469B001344413B00FA03F268
:10116C007B681B680A43DA623B681B68092B1CD935
:10117C007B681B68D9683B681A6813465B0013448C
:10118C001E3B072202FA03F3DB4319403B689868C5
:10119C003B681A6813465B0013441E3B00FA03F2CB
:1011AC007B681B680A43DA6019E07B681B68196965
:1011BC003B681A6813465B001344072202FA03F3D8
:1011CC00DB4319403B6898683B681A6813465B0020
:1011DC00134400FA03F27B681B680A431A613B68EC
:1011EC001B68102B03D03B681B68112B32D17B681A
:1011FC001B681D4A934225D17B681B689B6803F4CE
:10120C000003002B26D17B681B689A687B681B68DF
:10121C0042F400029A603B681B68102B1AD1134BE6
:10122C001B68134AA2FB03239A0C13469B0013441E
:10123C005B00BB6002E0BB68013BBB60BB68002B82
:10124C00F9D107E07B689B6A43F020027B689A62C5
:10125C000123FB737B68002283F82420FB7B184658
:10126C001437BD4680BC7047002401400C000020A0
:10127C0083DE1B4380B584B000AF78600023FB6035
:10128C007B681B689B6803F00103012B2ED17B68E4
:10129C001B689A687B681B6822F001029A60FFF752
:1012AC00EBFDF8601BE0FFF7E7FD0246FB68D31A85
:1012BC00022B14D97B681B689B6803F00103012B7C
:1012CC000DD17B689B6A43F010027B689A627B6845
:1012DC00DB6A43F001027B68DA62012307E07B687A
:1012EC001B689B6803F00103012BDCD0002318461C
:1012FC001037BD4680BD000080B485B000AF78606B
:10130C007B6803F00703FB600C4BDB68BB60BA68BF
:10131C004FF6FF031340BB60FB681A02BB68134314
:10132C0043F0BF6343F40033BB60044ABB68D36033
:10133C0000BF1437BD4680BC704700BF00ED00E015
:10134C0080B400AF044BDB681B0A03F0070318469C
:10135C00BD4680BC704700BF00ED00E080B483B098
:10136C0000AF0346FB7197F90730002B0BDBFB79C1
:10137C0003F01F02064997F907305B09012000FAB8
:10138C0002F241F8232000BF0C37BD4680BC7047E9
:10139C0000E100E080B483B000AF03463960FB711C
:1013AC0097F90730002B0ADB3B68DAB20C4997F946
:1013BC0007301201D2B20B4483F800230AE03B68D9
:1013CC00DAB20849FB7903F00F03043B1201D2B2E5
:1013DC000B441A7600BF0C37BD4680BC704700BF6B
:1013EC0000E100E000ED00E080B489B000AFF860EF
:1013FC00B9607A60FB6803F00703FB61FB69C3F11A
:10140C000703042B28BF0423BB61FB690433062BA1
:10141C0002D9FB69033B00E000237B614FF0FF32F4
:10142C00BB6902FA03F3DA43BB681A407B699A4042
:10143C004FF0FF317B6901FA03F3D9437B680B4012
:10144C00134318462437BD4680BC704780B582B024
:10145C0000AF78607B68013BB3F1807F01D301233F
:10146C000FE00A4A7B68013B53600F214FF0FF30BD
:10147C00FFF790FF054B00229A60044B07221A607D
:10148C00002318460837BD4680BD00BF10E000E0C1
:10149C0080B582B000AF78607868FFF72DFF00BF91
:1014AC000837BD4680BD80B586B000AF0346B96035
:1014BC007A60FB7300237B61FFF742FF78617A68E7
:1014CC00B9687869FFF790FF024697F90F3011461B
:1014DC001846FFF75FFF00BF1837BD4680BD80B5CB
:1014EC0082B000AF0346FB7197F907301846FFF73F
:1014FC0035FF00BF0837BD4680BD80B582B000AF58
:10150C0078607868FFF7A2FF034618460837BD4697
:10151C0080BD000080B48BB000AF786039600023D0
:10152C007B6200233B6269E101227B6A02FA03F3CE
:10153C00FB613B681B68FA691340BB61BA69FB69C4
:10154C009A4240F058813B685B689A4A93425ED05D
:10155C00984A934275D8984A934258D0964A9342E7
:10156C006FD8964A934252D0944A934269D8944A7F
:10157C0093424CD0924A934263D8924A934246D0BB
:10158C00904A93425DD8122B2AD8122B59D801A21B
:10159C0052F823F01B160008F51500080716000872
:1015AC00491600084F1600084F1600084F16000881
:1015BC004F1600084F1600084F1600084F1600086B
:1015CC004F1600084F1600084F1600084F1600085B
:1015DC004F1600084F160008FD15000811160008DC
:1015EC00794A934213D02CE03B68DB683B6229E0DC
:1015FC003B68DB6804333B6224E03B68DB68083300
:10160C003B621FE03B68DB680C333B621AE03B68D3
:10161C009B68002B02D104233B6213E03B689B6860
:10162C00012B05D108233B627B68FA691A6109E03A
:10163C0008233B627B68FA695A6103E000233B6232
:10164C0000E000BFBB69FF2B01D87B6801E07B6821
:10165C0004337B61BB69FF2B02D87B6A9B0002E0E1
:10166C007B6A083B9B003B617B691A680F213B69D5
:10167C0001FA03F3DB431A40396A3B6901FA03F3BD
:10168C001A437B691A603B685B6803F08053002B3C
:10169C0000F0B1804D4B9B694C4A43F001039361C0
:1016AC004A4B9B6903F00103BB60BB68484A7B6AE9
:1016BC009B08023352F82330FB607B6A03F0030370
:1016CC009B000F2202FA03F3DB43FA681340FB6022
:1016DC007B68404A934213D07B683F4A93420DD0BB
:1016EC007B683E4A934207D07B683D4A934201D1C6
:1016FC00032306E0042304E0022302E0012300E0BC
:10170C0000237A6A02F0030292009340FA681343B2
:10171C00FB602F497B6A9B080233FA6841F823204F
:10172C003B685B6803F48013002B06D02D4B9A6842
:10173C002C49BB6913438B6006E02A4B9A68BB6942
:10174C00DB43284913408B603B685B6803F4001350
:10175C00002B06D0234BDA682249BB691343CB60BC
:10176C0006E0204BDA68BB69DB431E491340CB60B3
:10177C003B685B6803F40033002B06D0194B5A68A6
:10178C001849BB6913434B6006E0164B5A68BB699A
:10179C00DB43144913404B603B685B6803F48033B4
:1017AC00002B21D00F4B1A680E49BB6913430B60F9
:1017BC0021E000BF000032100000311000002210A8
:1017CC000000211000001210000011100010024047
:1017DC000000014000080140000C014000100140D5
:1017EC0000140140000401400B4B1A68BB69DB4339
:1017FC00094913400B607B6A01337B623B681A68B2
:10180C007B6A22FA03F3002B7FF48EAE00BF00BF7D
:10181C002C37BD4680BC70470004014080B483B0B7
:10182C0000AF78600B467B8013467B707B78002B77
:10183C0003D07A887B681A6103E07B881A047B6882
:10184C001A6100BF0C37BD4680BC704780B485B0B0
:10185C0000AF78600B467B807B68DB68FB607A8826
:10186C00FB6813401A04FB68D9437B880B401A436E
:10187C007B681A6100BF1437BD4680BC70470000FE
:10188C0080B582B000AF0346FB80084B5A69FB88D9
:10189C001340002B06D0054AFB885361FB88184681
:1018AC0000F006F800BF0837BD4680BD00040140BB
:1018BC0080B483B000AF0346FB8000BF0C37BD463D
:1018CC0080BC704780B586B000AF78607B68002B19
:1018DC0001D1012372E27B681B6803F00103002B2A
:1018EC0000F08780924B5B6803F00C03042B0CD048
:1018FC008F4B5B6803F00C03082B12D18C4B5B688D
:10190C0003F48033B3F5803F0BD1894B1B6803F490
:10191C000033002B6CD07B685B68002B68D10123F3
:10192C004CE27B685B68B3F5803F06D1804B1B684B
:10193C007F4A43F4803313602EE07B685B68002B96
:10194C000CD17B4B1B687A4A23F480331360784BA1
:10195C001B68774A23F4802313601DE07B685B6867
:10196C00B3F5A02F0CD1724B1B68714A43F4802342
:10197C0013606F4B1B686E4A43F4803313600BE0AB
:10198C006B4B1B686A4A23F480331360684B1B68EB
:10199C00674A23F4802313607B685B68002B13D0A9
:1019AC00FFF76AFA386108E0FFF766FA02463B690E
:1019BC00D31A642B01D9032300E25D4B1B6803F49B
:1019CC000033002BF0D014E0FFF756FA386108E032
:1019DC00FFF752FA02463B69D31A642B01D9032351
:1019EC00ECE1534B1B6803F40033002BF0D100E007
:1019FC0000BF7B681B6803F00203002B63D04C4BC9
:101A0C005B6803F00C03002B0BD0494B5B6803F0B5
:101A1C000C03082B1CD1464B5B6803F48033002B62
:101A2C0016D1434B1B6803F00203002B05D07B68D7
:101A3C001B69012B01D00123C0E13D4B1B6823F036
:101A4C00F8027B685B69DB00394913430B603AE0B1
:101A5C007B681B69002B20D0364B01221A60FFF7E4
:101A6C000BFA386108E0FFF707FA02463B69D31A14
:101A7C00022B01D90323A1E12D4B1B6803F00203B8
:101A8C00002BF0D02A4B1B6823F0F8027B685B69B3
:101A9C00DB00274913430B6015E0264B00221A602C
:101AAC00FFF7EAF9386108E0FFF7E6F902463B690F
:101ABC00D31A022B01D9032380E11D4B1B6803F0C1
:101ACC000203002BF0D17B681B6803F00803002B8A
:101ADC003AD07B689B69002B19D0174B01221A60F6
:101AEC00FFF7CAF9386108E0FFF7C6F902463B690F
:101AFC00D31A022B01D9032360E10D4B5B6A03F06F
:101B0C000203002BF0D0012000F0CEFA1CE00A4BAF
:101B1C0000221A60FFF7B0F938610FE0FFF7ACF95B
:101B2C0002463B69D31A022B08D9032346E100BFB6
:101B3C00001002400000424280044242924B5B6A19
:101B4C0003F00203002BE9D17B681B6803F004034C
:101B5C00002B00F0A6800023FB758B4BDB6903F098
:101B6C008053002B0DD1884BDB69874A43F080539F
:101B7C00D361854BDB6903F08053BB60BB680123E9
:101B8C00FB75824B1B6803F48073002B18D17F4BC1
:101B9C001B687E4A43F480731360FFF76DF938615C
:101BAC0008E0FFF769F902463B69D31A642B01D9A7
:101BBC00032303E1754B1B6803F48073002BF0D0F7
:101BCC007B68DB68012B06D16F4B1B6A6E4A43F0B6
:101BDC00010313622DE07B68DB68002B0CD16A4B90
:101BEC001B6A694A23F001031362674B1B6A664A3E
:101BFC0023F0040313621CE07B68DB68052B0CD11B
:101C0C00614B1B6A604A43F0040313625E4B1B6A10
:101C1C005D4A43F0010313620BE05B4B1B6A5A4AAB
:101C2C0023F001031362584B1B6A574A23F0040339
:101C3C0013627B68DB68002B15D0FFF71DF9386148
:101C4C000AE0FFF719F902463B69D31A41F28832D0
:101C5C00934201D90323B1E04B4B1B6A03F00203FF
:101C6C00002BEED014E0FFF707F938610AE0FFF71C
:101C7C0003F902463B69D31A41F28832934201D9E7
:101C8C0003239BE0404B1B6A03F00203002BEED1B5
:101C9C00FB7D012B05D13C4BDB693B4A23F0805388
:101CAC00D3617B68DB69002B00F08780364B5B6867
:101CBC0003F00C03082B61D07B68DB69022B46D147
:101CCC00334B00221A60FFF7D7F8386108E0FFF7B2
:101CDC00D3F802463B69D31A022B01D903236DE0DA
:101CEC00294B1B6803F00073002BF0D17B681B6A37
:101CFC00B3F5803F08D1244B5B6823F400327B683A
:101D0C009B68214913434B601F4B5B6823F474128F
:101D1C007B68196A7B685B6A0B431B4913434B60F6
:101D2C001B4B01221A60FFF7A7F8386108E0FFF798
:101D3C00A3F802463B69D31A022B01D903233DE0D9
:101D4C00114B1B6803F00073002BF0D035E0104BE7
:101D5C0000221A60FFF790F8386108E0FFF78CF862
:101D6C0002463B69D31A022B01D9032326E0064B0A
:101D7C001B6803F00073002BF0D11EE07B68DB695D
:101D8C00012B07D1012319E0001002400070004024
:101D9C00600042420B4B5B68FB60FB6803F48032D3
:101DAC007B681B6A9A4206D1FB6803F470127B684D
:101DBC005B6A9A4201D0012300E0002318461837D1
:101DCC00BD4680BD0010024080B584B000AF786085
:101DDC0039607B68002B01D10123D0E06A4B1B6872
:101DEC0003F007033A689A4210D9674B1B6823F03B
:101DFC00070265493B6813430B60634B1B6803F098
:101E0C0007033A689A4201D00123B8E07B681B684B
:101E1C0003F00203002B20D07B681B6803F0040343
:101E2C00002B05D0594B5B68584A43F4E063536070
:101E3C007B681B6803F00803002B05D0534B5B68D1
:101E4C00524A43F460535360504B5B6823F0F002EA
:101E5C007B689B684D4913434B607B681B6803F0A0
:101E6C000103002B40D07B685B68012B07D1474BEB
:101E7C001B6803F40033002B15D101237FE07B6832
:101E8C005B68022B07D1414B1B6803F00073002BDE
:101E9C0009D1012373E03D4B1B6803F00203002BB7
:101EAC0001D101236BE0394B5B6823F003027B68A3
:101EBC005B68364913434B60FEF7DEFFF8600AE0BF
:101ECC00FEF7DAFF0246FB68D31A41F288329342DE
:101EDC0001D9032353E02D4B5B6803F00C027B68A4
:101EEC005B689B009A42EBD1274B1B6803F00703FE
:101EFC003A689A4210D2244B1B6823F007022249FD
:101F0C003B6813430B60204B1B6803F007033A68D4
:101F1C009A4201D0012332E07B681B6803F0040372
:101F2C00002B08D0194B5B6823F4E0627B68DB68FC
:101F3C00164913434B607B681B6803F00803002BA6
:101F4C0009D0124B5B6823F460527B681B69DB0081
:101F5C000E4913434B6000F021F802460B4B5B68B3
:101F6C001B0903F00F030A49CB5C22FA03F3094A5D
:101F7C001360094B1B681846FEF73CFF00231846FC
:101F8C001037BD4680BD00BF00200240001002404B
:101F9C00BC2F00080C0000201000002080B487B07B
:101FAC0000AF0023FB600023BB6000237B61002398
:101FBC007B6000233B611E4B5B68FB60FB6803F09E
:101FCC000C03042B02D0082B03D027E0194B3B61E8
:101FDC0027E0FB689B0C03F00F03174AD35C7B6074
:101FEC00FB6803F48033002B10D0114B5B685B0C47
:101FFC0003F00103114AD35CBB607B680D4A03FB01
:10200C0002F2BB68B2FBF3F37B6104E07B680C4A21
:10201C0002FB03F37B617B693B6102E0054B3B6197
:10202C0000BF3B6918461C37BD4680BC704700BFDB
:10203C000010024000127A00D42F0008E42F000890
:10204C0000093D0080B400AF024B1B681846BD462A
:10205C0080BC70470C00002080B500AFFFF7F2FF8A
:10206C000246054B5B681B0A03F007030349CB5C74
:10207C0022FA03F3184680BD00100240CC2F000852
:10208C0080B500AFFFF7DEFF0246054B5B68DB0A4D
:10209C0003F007030349CB5C22FA03F3184680BD17
:1020AC0000100240CC2F000880B485B000AF7860DF
:1020BC000A4B1B680A4AA2FB03235B0A7A6802FBE1
:1020CC0003F3FB6000BFFB685A1EFA60002BF9D1CA
:1020DC0000BF00BF1437BD4680BC70470C00002009
:1020EC00D34D621080B586B000AF786000233B61A1
:1020FC000023FB607B681B6803F00103002B7DD081
:10210C000023FB754F4BDB6903F08053002B0DD183
:10211C004C4BDB694B4A43F08053D361494BDB6931
:10212C0003F08053BB60BB680123FB75464B1B68F7
:10213C0003F48073002B18D1434B1B68424A43F4C1
:10214C0080731360FEF798FE386108E0FEF794FE8A
:10215C0002463B69D31A642B01D903236DE03A4B39
:10216C001B6803F48073002BF0D0364B1B6A03F40E
:10217C004073FB60FB68002B2ED07B685B6803F41C
:10218C004073FA689A4227D02E4B1B6A23F4407393
:10219C00FB602E4B01221A602C4B00221A60294A3C
:1021AC00FB681362FB6803F00103002B14D0FEF7ED
:1021BC0063FE38610AE0FEF75FFE02463B69D31A04
:1021CC0041F28832934201D9032336E01D4B1B6A3E
:1021DC0003F00203002BEED01A4B1B6A23F440725F
:1021EC007B685B68174913430B62FB7D012B05D1A0
:1021FC00144BDB69134A23F08053D3617B681B6853
:10220C0003F00203002B08D00E4B5B6823F4404212
:10221C007B689B680B4913434B607B681B6803F01E
:10222C001003002B08D0074B5B6823F480027B68FB
:10223C00DB68044913434B60002318461837BD462E
:10224C0080BD00BF001002400070004040044242BC
:10225C0080B582B000AF78607B68002B01D1012380
:10226C0076E07B685B6A002B08D17B685B68B3F512
:10227C00827F09D07B680022DA6105E07B6800224E
:10228C001A617B6800225A617B6800229A627B6823
:10229C0093F85130DBB2002B06D17B68002283F817
:1022AC0050207868FEF786FC7B68022283F8512068
:1022BC007B681B681A687B681B6822F040021A60F6
:1022CC007B685B6803F482727B689B6803F404434D
:1022DC001A437B68DB6803F400631A437B681B6951
:1022EC0003F002031A437B685B6903F001031A4392
:1022FC007B689B6903F400731A437B68DB6903F00A
:10230C0038031A437B681B6A03F0800342EA03011B
:10231C007B689B6A03F400527B681B680A431A6053
:10232C007B689B691A0C7B681B6802F004025A607C
:10233C007B681B68DA697B681B6822F40062DA61CF
:10234C007B6800225A657B68012283F851200023A8
:10235C0018460837BD4680BD80B588B000AFF86020
:10236C00B9603B601346FB80FEF786FDF861FB8885
:10237C007B83FB6893F85130DBB2012B01D0022335
:10238C002AE1BB68002B02D0FB88002B01D1012372
:10239C0022E1FB6893F85030012B01D102231BE1A1
:1023AC00FB68012283F85020FB68032283F851203C
:1023BC00FB6800225A65FB68BA681A63FB68FA88E6
:1023CC009A86FB68FA88DA86FB6800229A63FB68B7
:1023DC0000229A87FB680022DA87FB6800225A6485
:1023EC00FB6800221A64FB689B68B3F5004F0FD1A1
:1023FC00FB681B681A68FB681B6822F040021A60B5
:10240C00FB681B681A68FB681B6842F480421A6000
:10241C00FB681B681B6803F04003402B07D0FB686C
:10242C001B681A68FB681B6842F040021A60FB6864
:10243C00DB68B3F5006F52D1FB685B68002B02D0F0
:10244C007B8B012B45D1FB681B6B1A88FB681B68C7
:10245C00DA60FB681B6B9A1CFB681A63FB68DB8EEB
:10246C009BB2013B9AB2FB68DA8632E0FB681B68D0
:10247C009B6803F00203022B12D1FB681B6B1A88BA
:10248C00FB681B68DA60FB681B6B9A1CFB681A63A1
:10249C00FB68DB8E9BB2013B9AB2FB68DA8618E0D4
:1024AC00FEF7EAFC0246FB69D31A3A689A4203D853
:1024BC003B68B3F1FF3F02D13B68002B09D1FB68AD
:1024CC00012283F85120FB68002283F8502003235B
:1024DC0082E0FB68DB8E9BB2002BC7D153E0FB681C
:1024EC005B68002B02D07B8B012B47D1FB681A6BEE
:1024FC00FB681B680C3312781A70FB681B6B5A1C38
:10250C00FB681A63FB68DB8E9BB2013B9AB2FB68DB
:10251C00DA8633E0FB681B689B6803F00203022B2E
:10252C0013D1FB681A6BFB681B680C3312781A709A
:10253C00FB681B6B5A1CFB681A63FB68DB8E9BB237
:10254C00013B9AB2FB68DA8618E0FEF795FC02466E
:10255C00FB69D31A3A689A4203D83B68B3F1FF3F40
:10256C0002D13B68002B09D1FB68012283F8512072
:10257C00FB68002283F8502003232DE0FB68DB8EE0
:10258C009BB2002BC6D1FA693968F86800F0C4FB1D
:10259C000346002B02D0FB6820225A65FB689B681F
:1025AC00002B0AD100237B61FB681B68DB687B6115
:1025BC00FB681B689B687B617B69FB68012283F865
:1025CC005120FB68002283F85020FB685B6D002BC8
:1025DC0001D0012300E0002318462037BD4680BD02
:1025EC0080B588B002AFF860B9603B601346FB80E1
:1025FC00FB6893F85130DBB2012B01D0022304E1CC
:10260C00FB685B68B3F5827F12D1FB689B68002B7B
:10261C000ED1FB68042283F85120FA883B680093A2
:10262C001346BA68B968F86800F0F3F80346ECE0B2
:10263C00FEF722FC7861BB68002B02D0FB88002BD4
:10264C0001D10123E1E0FB6893F85030012B01D15B
:10265C000223DAE0FB68012283F85020FB68042295
:10266C0083F85120FB6800225A65FB68BA689A63AC
:10267C00FB68FA889A87FB68FA88DA87FB6800227D
:10268C001A63FB6800229A86FB680022DA86FB68D4
:10269C0000221A64FB6800225A64FB689B68B3F53D
:1026AC00004F0FD1FB681B681A68FB681B6822F08F
:1026BC0040021A60FB681B681A68FB681B6822F4EE
:1026CC0080421A60FB681B681B6803F04003402BB8
:1026DC0007D0FB681B681A68FB681B6842F0400255
:1026EC001A60FB68DB68002B70D135E0FB681B6857
:1026FC009B6803F00103012B15D1FB681B6803F1E8
:10270C000C02FB689B6B1278D2B21A70FB689B6B45
:10271C005A1CFB689A63FB68DB8F9BB2013B9AB235
:10272C00FB68DA8718E0FEF7A7FB02467B69D31A31
:10273C003A689A4203D83B68B3F1FF3F02D13B6839
:10274C00002B09D1FB68012283F85120FB68002281
:10275C0083F85020032358E0FB68DB8F9BB2002BDF
:10276C00C4D138E0FB681B689B6803F00103012BA4
:10277C0013D1FB681B68DA68FB689B6B92B21A80FA
:10278C00FB689B6B9A1CFB689A63FB68DB8F9BB2A4
:10279C00013B9AB2FB68DA8718E0FEF76DFB024644
:1027AC007B69D31A3A689A4203D83B68B3F1FF3F6E
:1027BC0002D13B68002B09D1FB68012283F8512020
:1027CC00FB68002283F8502003231EE0FB68DB8F9C
:1027DC009BB2002BC6D17A693968F86800F04AFAC6
:1027EC000346002B02D0FB6820225A65FB680122AD
:1027FC0083F85120FB68002283F85020FB685B6D46
:10280C00002B01D0012300E0002318461837BD46E9
:10281C0080BD80B58AB000AFF860B9607A607B800B
:10282C0001237B62FEF728FB3862FB6893F851307A
:10283C00FB77FB685B68BB617B88FB82FB7F012BB2
:10284C000CD0BB69B3F5827F06D1FB689B68002B6B
:10285C0002D1FB7F042B01D002237FE1BB68002B4C
:10286C0005D07B68002B02D07B88002B01D1012383
:10287C0074E1FB6893F85030012B01D102236DE118
:10288C00FB68012283F85020FB6893F85130DBB2CF
:10289C00042B03D0FB68052283F85120FB6800222F
:1028AC005A65FB687A689A63FB687A88DA87FB68F2
:1028BC007A889A87FB68BA681A63FB687A88DA8622
:1028CC00FB687A889A86FB6800221A64FB680022EF
:1028DC005A64FB681B681B6803F04003402B07D04D
:1028EC00FB681B681A68FB681B6842F040021A60A0
:1028FC00FB68DB68B3F5006F7ED1FB685B68002B6F
:10290C0002D0FB8A012B6CD1FB681B6B1A88FB680D
:10291C001B68DA60FB681B6B9A1CFB681A63FB680C
:10292C00DB8E9BB2013B9AB2FB68DA8659E0FB68FE
:10293C001B689B6803F00203022B1BD1FB68DB8E28
:10294C009BB2002B16D07B6A012B13D1FB681B6B3F
:10295C001A88FB681B68DA60FB681B6B9A1CFB68A7
:10296C001A63FB68DB8E9BB2013B9AB2FB68DA867A
:10297C0000237B62FB681B689B6803F00103012B3F
:10298C0019D1FB68DB8F9BB2002B14D0FB681B6842
:10299C00DA68FB689B6B92B21A80FB689B6B9A1C83
:1029AC00FB689A63FB68DB8F9BB2013B9AB2FB68B6
:1029BC00DA8701237B62FEF75FFA02463B6AD31A81
:1029CC003A6B9A420DD83B6BB3F1FF3F09D0FB68D1
:1029DC00012283F85120FB68002283F85020032346
:1029EC00BCE0FB68DB8E9BB2002BA0D1FB68DB8FBD
:1029FC009BB2002B9BD182E0FB685B68002B02D062
:102A0C00FB8A012B71D1FB681A6BFB681B680C33BA
:102A1C0012781A70FB681B6B5A1CFB681A63FB68F4
:102A2C00DB8E9BB2013B9AB2FB68DA865DE0FB68F9
:102A3C001B689B6803F00203022B1CD1FB68DB8E26
:102A4C009BB2002B17D07B6A012B14D1FB681A6B3D
:102A5C00FB681B680C3312781A70FB681B6B5A1CD2
:102A6C00FB681A63FB68DB8E9BB2013B9AB2FB6876
:102A7C00DA8600237B62FB681B689B6803F001030A
:102A8C00012B19D1FB68DB8F9BB2002B14D0FB6898
:102A9C001B68DA68FB689B6BD2B21A70FB689B6B85
:102AAC005A1CFB689A63FB68DB8F9BB2013B9AB2A2
:102ABC00FB68DA8701237B62FEF7DEF902463B6A8C
:102ACC00D31A3A6B9A4203D83B6BB3F1FF3F02D156
:102ADC003B6B002B09D1FB68012283F85120FB686A
:102AEC00002283F85020032338E0FB68DB8E9BB276
:102AFC00002B9CD1FB68DB8F9BB2002B97D13A6AE1
:102B0C00396BF86800F008F90346002B08D0FB6815
:102B1C0020225A65FB68002283F8502001231DE017
:102B2C00FB689B68002B0AD100233B61FB681B6888
:102B3C00DB683B61FB681B689B683B613B69FB681E
:102B4C00012283F85120FB68002283F85020FB6897
:102B5C005B6D002B01D0012300E0002318462837C1
:102B6C00BD4680BD80B588B000AFF860B9603B60F1
:102B7C001346FB71FEF780F90246BB6A9B1A3A6852
:102B8C001344FB61FEF778F9B861394B1B685B01A4
:102B9C001B0DFA6902FB03F37B6154E03B68B3F154
:102BAC00FF3F50D0FEF768F90246BB69D31AFA69A9
:102BBC009A4202D9FB69002B3DD1FB681B685A680D
:102BCC00FB681B6822F0E0025A60FB685B68B3F597
:102BDC00827F11D1FB689B68B3F5004F04D0FB6872
:102BEC009B68B3F5806F07D1FB681B681A68FB689C
:102BFC001B6822F040021A60FB689B6AB3F5005F09
:102C0C000FD1FB681B681A68FB681B6822F4005222
:102C1C001A60FB681B681A68FB681B6842F4005258
:102C2C001A60FB68012283F85120FB68002283F8AC
:102C3C005020032317E07B69002B01D10023FB619B
:102C4C007B69013B7B61FB681B689A68BB6813401E
:102C5C00BA689A420CBF01230023DBB21A46FB79F7
:102C6C009A429BD1002318462037BD4680BD00BF39
:102C7C000C00002080B586B002AFF860B9607A60B5
:102C8C00FB685B68B3F5827F11D1FB689B68B3F579
:102C9C00004F04D0FB689B68B3F5806F07D1FB68CD
:102CAC001B681A68FB681B6822F040021A60FB68FC
:102CBC005B68B3F5827F17D1FB689B68B3F5806FB7
:102CCC0012D17B680093BB6800220121F868FFF7E2
:102CDC0049FF0346002B1AD0FB685B6D43F02002C2
:102CEC00FB685A65032313E07B680093BB680022E2
:102CFC008021F868FFF736FF0346002B07D0FB68EE
:102D0C005B6D43F02002FB685A65032300E000234F
:102D1C0018461037BD4680BD80B586B002AFF8604E
:102D2C00B9607A607B680093BB6801220221F86865
:102D3C00FFF718FF0346002B07D0FB685B6D43F0D1
:102D4C002002FB685A65032313E07B680093BB6881
:102D5C0000228021F868FFF705FF0346002B07D0FF
:102D6C00FB685B6D43F02002FB685A65032300E0AF
:102D7C00002318461037BD4680BD80B582B000AF29
:102D8C0078607B68002B01D1012342E07B6893F8CB
:102D9C004130DBB2002B06D17B68002283F8402047
:102DAC007868FDF761FF7B68242283F841207B68FB
:102DBC001B68DA687B681B6822F40052DA6078685A
:102DCC0000F02CF87B681B681A697B681B6822F47E
:102DDC0090421A617B681B685A697B681B6822F0F9
:102DEC002A025A617B681B68DA687B681B6842F4AC
:102DFC000052DA607B6800225A647B68202283F8D8
:102E0C0041207B68202283F842207B6800225A6391
:102E1C00002318460837BD4680BD000080B584B03D
:102E2C0000AF78607B681B681B6923F440517B689A
:102E3C00DA687B681B680A431A617B689A687B684E
:102E4C001B691A437B685B691343BB607B681B6817
:102E5C00DB6823F4B05323F00C037A681268B9686A
:102E6C000B43D3607B681B685B6923F440717B6800
:102E7C009A697B681B680A435A617B681B682C4AF9
:102E8C00934203D1FFF7FCF8F86002E0FFF7E4F897
:102E9C00F860FA6813469B0013449A001A447B6846
:102EAC005B689B00B2FBF3F3224AA2FB03235B0992
:102EBC001901FA6813469B0013449A001A447B6864
:102ECC005B689B00B2FBF3F21A4BA3FB02035B099A
:102EDC00642000FB03F3D31A1B013233154AA2FB07
:102EEC0003235B0903F0F0031944FA6813469B00B3
:102EFC0013449A001A447B685B689B00B2FBF3F2A4
:102F0C000C4BA3FB02035B09642000FB03F3D31AF5
:102F1C001B013233074AA2FB03235B0903F00F02A8
:102F2C007B681B680A449A6000BF1037BD4680BDA1
:102F3C00003801401F85EB5103460244934200D1F7
:102F4C00704703F8011BF9E770B500260C4D0D4CCA
:102F5C00641BA410A64209D100F01AF800260A4DF1
:102F6C000A4C641BA410A64205D170BD55F8043B55
:102F7C0098470136EEE755F8043B98470136F2E7DF
:102F8C00E82F0008E82F0008E82F0008EC2F0008B5
:102F9C00F8B500BFF8BC08BC9E467047F8B500BF3A
:082FAC00F8BC08BC9E4670470A
:102FB4000001020304000000000000000000000003
:102FC40001020304060708090000000001020304CB
:102FD40002030405060708090A0B0C0D0E0F101056
:042FE40001020000E6
:042FE80031010008AB
:042FEC000D010008CB
:102FF00000800000000801406400002000127A00F8
:083000001000000001000000B7
:0400000508000D8959
:00000001FF
