:020000040800F2
:1040000000000000042001037C1000003FCD1DFFD4
:0440100001000000AB
:1044000000500020D5500008715000087950000875
:1044100081500008895000089150000800000000F9
:10442000000000000000000000000000995000089B
:10443000A550000800000000B1500008BD50000861
:104440001D5100081D5100081D5100081D51000894
:104450001D5100081D5100081D5100081D51000884
:104460001D5100081D5100081D5100081D51000874
:104470001D5100081D5100081D5100081D51000864
:104480001D5100081D5100081D5100081D51000854
:104490001D5100081D5100081D5100084D45000820
:1044A0001D5100081D5100081D5100081D51000834
:1044B0001D5100081D5100081D5100081D51000824
:1044C0001D5100081D5100081D5100081D51000814
:1044D0001D5100081D5100081D5100081D51000804
:1044E0001D5100081D5100081D510008000000006A
:1044F00000000000000000000000000000000000BC
:0C45000000000000000000005FF808F15F
:10450C0010B5054C237833B9044B13B10448AFF301
:10451C0000800123237010BD0C000020000000005F
:10452C003C54000808B5034B1BB103490348AFF3D7
:10453C00008008BD00000000100000203C54000862
:10454C0080B400AF094B5B6903F04003002B08D02B
:10455C00074B01221A70054B5B69044A43F0400378
:10456C00536100BFBD4680BC704700BF00040140D2
:10457C003E00002080B483B000AF0346FB80074BA5
:10458C0000225A6200BFFA88044B5B6A9A42FAD83E
:10459C0000BF00BF0C37BD4680BC70470008004010
:1045AC0080B582B000AF0346FB8003E04FF47A7015
:1045BC00FFF7E0FFFB885A1EFA80002BF6D100BFF4
:1045CC0000BF0837BD4680BD80B588B000AF00F095
:1045DC00A1FD974B974A9A6062B600BF00BF964BFD
:1045EC001B6803F00203002BF9D0934B00225A6096
:1045FC00914B1B68904A43F48033136000BF8E4B81
:10460C001B6803F40033002BF9D08B4BDB698A4A0F
:10461C0043F08053D361894B1B68884A43F01003E5
:10462C001360864B1B68854A23F007031360834B8A
:10463C001B68824A43F0020313607F4B5B687E4A1F
:10464C0043F4EC1343F4806353607B4B1B687A4A4E
:10465C0043F08073136000BF774B1B6803F000734B
:10466C00002BF9D0744B5B68734A43F00203536020
:10467C0000BF714B5B689B0803F00303022BF8D15E
:10468C006D4B9B696C4A43F02003936100F002FA76
:10469C00694B9B69684A43F4805343F01C03936154
:1046AC00674B1B68664A9BB21360654B5B68644A38
:1046BC0023F070435360624B1B68614A43F04C73A8
:1046CC0043F4403313605E4B1B685D4A43F08043F8
:1046DC0013605B4B5B685A4A43F040535360594B31
:1046EC001B68584AC3F30B031360564B5B68554A5F
:1046FC0023F0FF035360534BDB68524A43F460735F
:10470C00D360504B1B684F4A43F0405313604D4BE2
:10471C005B684C4A43F0330353604A4B1B68494A6D
:10472C0043F4340343F430431360464B1B68454A4F
:10473C0043F080631360444BDB68434A43F480735B
:10474C00D360424B1B68414A43F0400313603F4B1C
:10475C00DB683E4A43F04003D3603C4B5B693B4A09
:10476C0043F0400353613A4B1B68394A43F400034E
:10477C001360354B5B68344A43F001035360324B92
:10478C005B68314A43F080635360324B00221A60FD
:10479C00304B4FF447721A602E4B1B682D4A43F076
:1047AC0040031360244BDB69234A43F00403D361B9
:1047BC00294B00225A62284B4FF6FF72DA62264BC5
:1047CC0047229A62244B5B69234A43F001035361ED
:1047DC00214B1B68204A43F001031360164BDB6925
:1047EC00154A43F40063D3611C4B40F2FF125A602C
:1047FC0000237B760023FB770023BB7700237B779A
:10480C0000233B770023FB76154A07F1100392E84F
:10481C0003001860043319800023FB82084BDB680B
:10482C00074A23F02003D3600023BB7645E000BF8A
:10483C0000ED00E00044000800100240002002409F
:10484C0000080140000C0140000001400004014040
:10485C0000E100E00030014000080040002C004066
:10486C00545400080120FFF79BFE834BDB68824AFF
:10487C0043F04003D360804BDB687F4A43F0200356
:10488C00D3607D4B9B6803F08003002B09D0BB7E6B
:10489C00012202FA03F35AB297F91F3013435BB2A9
:1048AC00FB770120FFF77CFE734BDB68724A23F029
:1048BC004003D360BB7E0133BB76BB7E072BD1D9C3
:1048CC006E4A3B1D07CA83E807003B1D184600F0E3
:1048DC00DAF93B1D184600F02DFAF97F3B1D072233
:1048EC00184600F047FAF97F3B1D0722184600F0E6
:1048FC006FFA07F110013B1D0122184600F088FAEF
:10490C005F4BFF221A601420FFF74AFE3B7F002BFF
:10491C000DD07B7F5A1C7A77182B0ED900237B770E
:10492C00584BDB68574A83F48073D36005E0554BD2
:10493C00DB68544A43F48073D360FB7E002B05D0B4
:10494C00504BDB684F4A23F08003D360BB7F5A1C6B
:10495C00BA77962B12D90023BB770023FB76002362
:10496C003B77484BDB68474A43F48073D36007F1CD
:10497C0010013B1D0122184600F04AFA424B1B78ED
:10498C00DBB283F00103DBB2002B71D13E4B002272
:10499C001A7007F119023B1D2C21184600F008F97A
:1049AC00381D0023FF222C2100F0BDF83B1D374A97
:1049BC000021184600F01EF97B7E5BB2002B59DB00
:1049CC00324B5B79002B02D10123FB7698E72F4BFE
:1049DC005B79022B05D13B7F002B02D000233B7768
:1049EC0049E02A4B5B79022B02D101233B7787E705
:1049FC00264B5B79032B02D100233B7780E7234BBB
:104A0C005B79012B06D11C4BDB681B4A83F010032E
:104A1C00D36075E71D4B5B79042B7FF471AF194B99
:104A2C00DB68184A23F40073D3600A20FFF7B8FD43
:104A3C00144BDB68134A43F40073D3600123FB76F9
:104A4C000023BB77124B04221A700B4B9B681B097B
:104A5C00DBB203F00103DAB20D4B5A700C4BFF22A0
:104A6C009A703B1D03220A49184600F0D1F947E71A
:104A7C0000BF45E700BF43E7000801405C54000855
:104A8C00002C0040000C01403E00002030000020B3
:104A9C002800002080B483B000AF084B9B69074A04
:104AAC0043F020039361054B9B6903F020037B606B
:104ABC007B6800BF0C37BD4680BC704700100240BD
:104ACC0080B584B000AF78600B46FB70FB7863F068
:104ADC007F03DBB23B73786800F06BFA07F10C01D3
:104AEC0064230122786800F0B2F9786800F075FA56
:104AFC0000BF1037BD4680BD80B584B000AF786074
:104B0C00C0233B73786800F054FA07F10C0164235E
:104B1C000122786800F09BF9786800F05EFA00BF1B
:104B2C001037BD4680BD80B584B000AF78600846B4
:104B3C0011461A460346FB700B46BB7013467B703E
:104B4C0005233B73FB787B73BB78BB737B78FB7360
:104B5C00786800F02EFA07F10C01642304227868BF
:104B6C0000F075F9786800F038FA00BF1037BD46D0
:104B7C0080BD80B584B000AF78600B46FB701346E7
:104B8C00BB7002233B73FB787B73BB78BB73786879
:104B9C0000F00FFA07F10C0164230322786800F08F
:104BAC0056F9786800F019FA00BF1037BD4680BD81
:104BBC0080B586B000AFF8600B467A60FB720323B9
:104BCC003B75FB7A7B75F86800F0F3F907F114017B
:104BDC0064230222F86800F03AF964230122796810
:104BEC00F86800F099F9F86800F0F7F900BF183789
:104BFC00BD4680BD80B586B000AFF8600B467A60CC
:104C0C00FB72FB7A63F06F03DBB23B75F86800F064
:104C1C00D0F907F1140164230122F86800F017F9A8
:104C2C0064230D227968F86800F076F9F86800F0D2
:104C3C00D4F900BF1837BD4680BD80B586B000AF33
:104C4C00F8607A601A460B46FB721346BB72FB7A0D
:104C5C0043F04003DBB23B75F86800F0AAF907F1AA
:104C6C00140164230122F86800F0F1F8BA7A642385
:104C7C007968F86800F0EBF8F86800F0AEF900BF5E
:104C8C001837BD4680BD80B582B000AF78607868BB
:104C9C00FFF732FF0A2000F09FFA80220F2178687C
:104CAC00FFF767FF002260217868FFF762FF05229B
:104CBC000C217868FFF75DFF01222B217868FFF744
:104CCC0058FF002220217868FFF753FF0022212192
:104CDC007868FFF74EFF002222217868FFF749FF22
:104CEC00002223217868FFF744FF03222A217868E9
:104CFC00FFF73FFF832229217868FFF73AFF032251
:104D0C0028217868FFF735FF00220F217868FFF71C
:104D1C0030FF0A2000F060FA00222D217868FFF79E
:104D2C0028FF00222C217868FFF723FF00BF0837EB
:104D3C00BD4680BD80B582B000AF786080220F2167
:104D4C007868FFF716FFFF2220217868FFF711FF24
:104D5C00E02221217868FFF70CFF00220F217868F0
:104D6C00FFF707FF0520FFF71BFC00BF0837BD4608
:104D7C0080BD000080B582B000AF78600B46FB7040
:104D8C001346BB70BB785B01DAB2104B1A708022F1
:104D9C000F217868FFF7EDFEFB781A460021786842
:104DAC00FFF7E7FE094B1B781A4601217868FFF7DD
:104DBC00E0FE00220F217868FFF7DBFE0520FFF7ED
:104DCC00EFFB00BF0837BD4680BD00BF3F00002091
:104DDC0080B582B000AF78600B46FB701346BB7099
:104DEC00BB785B01DAB2094B1A70FB781A46312199
:104DFC007868FFF7BEFE054B1B781A46322178689F
:104E0C00FFF7B7FE00BF0837BD4680BD400000204D
:104E1C0080B584B000AFF860B9601346FB71FB79C4
:104E2C00082B10D8FB791A463521F868FFF7A1FE3C
:104E3C00FB79BA680121F868FFF7FFFE0121F868D9
:104E4C00FFF73EFE00E000BF1037BD4680BD80B5C9
:104E5C0086B000AFF860B96011461A460B46FB717C
:104E6C001346BB800023FB751DE0BB88BB8209E0A9
:104E7C00BB8A5A1EBA82002B01D1002348E00120C4
:104E8C00FFF78EFBFB681B689B6803F00203002B8B
:104E9C00EED0FB7DBA6813441A78FB681B68DA60A5
:104EAC00FB7D0133FB75FA7DFB799A42DDD3BB8820
:104EBC00BB8209E0BB8A5A1EBA82002B01D10023A7
:104ECC0026E00120FFF76CFBFB681B689B6803F076
:104EDC000203002BEED0BB88BB8209E0BB8A5A1EB2
:104EEC00BA82002B01D1002312E00120FFF758FBFE
:104EFC00FB681B689B6803F08003002BEED1FB68FA
:104F0C001B68DB68FB74FB681B689B68FB740123E4
:104F1C0018461837BD4680BD80B586B000AFF86026
:104F2C00B96011461A460B46FB711346BB80BB8811
:104F3C00FB8222E0BB88FB82FB681B680022DA60E4
:104F4C0009E0FB8A5A1EFA82002B01D100232CE0C7
:104F5C000120FFF725FBFB681B689B6803F001032E
:104F6C00002BEED0FB681B68D968BB685A1CBA6072
:104F7C00CAB21A70FB79013BFB71FB79002BD9D1BA
:104F8C00BB88FB8209E0FB8A5A1EFA82002B01D1F6
:104F9C0000230AE00120FFF703FBFB681B689B68FA
:104FAC0003F08003002BEED1012318461837BD46C1
:104FBC0080BD80B483B000AF78607B685B68DA68D2
:104FCC007B681B89DB4319467B685B680A40DA60A7
:104FDC0000BF0C37BD4680BC704780B483B000AFB7
:104FEC0078607B685B68DA687B681B8919467B682C
:104FFC005B680A43DA6000BF0C37BD4680BC704763
:10500C0080B485B000AF154B9B69144A43F0010383
:10501C009361124B9B6903F00103BB60BB680F4BA0
:10502C00DB690E4A43F08053D3610C4BDB6903F010
:10503C0080537B607B680A4B5B68FB60FB6823F0EA
:10504C00E063FB60FB6843F08063FB60044AFB6831
:10505C00536000BF1437BD4680BC7047001002403F
:10506C000000014080B400AF00BFFDE780B400AF8A
:10507C0000BFFDE780B400AF00BFFDE780B400AF18
:10508C0000BFFDE780B400AF00BFFDE780B400AF08
:10509C0000BFBD4680BC704780B400AF00BFBD46AA
:1050AC0080BC704780B400AF00BFBD4680BC704769
:1050BC0080B500AF00F074F800BF80BD80B400AFC5
:1050CC0000BFBD4680BC7047FFF7F8FF0B480C498A
:1050DC000C4A002302E0D458C4500433C4188C4248
:1050EC00F9D3094A094C002301E013600432A242AF
:1050FC00FBD300F079F9FFF767FA70470000002046
:10510C000C000020705400080C0000204800002007
:10511C00FEE7000080B500AF084B1B68074A43F060
:10512C0010031360032000F02BF90F2000F008F897
:10513C00FFF766FF0023184680BD00BF0020024029
:10514C0080B582B000AF7860124B1A68124B1B7896
:10515C0019464FF47A73B3FBF1F3B2FBF3F3184631
:10516C0000F035F90346002B01D001230EE07B68DB
:10517C000F2B0AD8002279684FF0FF3000F00BF9A2
:10518C00064A7B681360002300E0012318460837A9
:10519C00BD4680BD00000020080000200400002057
:1051AC0080B400AF054B1B781A46054B1B681344A3
:1051BC00034A136000BFBD4680BC70470800002046
:1051CC004400002080B400AF024B1B681846BD465B
:1051DC0080BC70474400002080B584B000AF78607C
:1051EC00FFF7F0FFB8607B68FB60FB68B3F1FF3F33
:1051FC0005D00A4B1B781A46FB681344FB6000BFB2
:10520C00FFF7E0FF0246BB68D31AFA689A42F7D858
:10521C0000BF00BF1037BD4680BD00BF0800002096
:10522C0080B485B000AF78607B6803F00703FB6047
:10523C000C4BDB68BB60BA684FF6FF031340BB60D6
:10524C00FB681A02BB68134343F0BF6343F400339B
:10525C00BB60044ABB68D36000BF1437BD4680BC3A
:10526C00704700BF00ED00E080B400AF044BDB687A
:10527C001B0A03F007031846BD4680BC704700BFED
:10528C0000ED00E080B483B000AF03463960FB71E1
:10529C0097F90730002B0ADB3B68DAB20C4997F917
:1052AC0007301201D2B20B4483F800230AE03B68AA
:1052BC00DAB20849FB7903F00F03043B1201D2B2B6
:1052CC000B441A7600BF0C37BD4680BC704700BF3C
:1052DC0000E100E000ED00E080B489B000AFF860C0
:1052EC00B9607A60FB6803F00703FB61FB69C3F1EB
:1052FC000703042B28BF0423BB61FB690433062B73
:10530C0002D9FB69033B00E000237B614FF0FF32C5
:10531C00BB6902FA03F3DA43BB681A407B699A4013
:10532C004FF0FF317B6901FA03F3D9437B680B40E3
:10533C00134318462437BD4680BC704780B582B0F5
:10534C0000AF78607B68013BB3F1807F01D3012310
:10535C000FE00A4A7B68013B53600F214FF0FF308E
:10536C00FFF790FF054B00229A60044B07221A604E
:10537C00002318460837BD4680BD00BF10E000E092
:10538C0080B582B000AF78607868FFF749FF00BF46
:10539C000837BD4680BD80B586B000AF0346B96006
:1053AC007A60FB7300237B61FFF75EFF78617A689C
:1053BC00B9687869FFF790FF024697F90F301146EC
:1053CC001846FFF75FFF00BF1837BD4680BD80B59C
:1053DC0082B000AF78607868FFF7B0FF03461846DC
:1053EC000837BD4680BD000070B500260C4D0D4C35
:1053FC00641BA410A64209D100F01AF800260A4D2D
:10540C000A4C641BA410A64205D170BD55F8043B90
:10541C0098470136EEE755F8043B98470136F2E71A
:10542C006854000868540008685400086C5400085C
:10543C00F8B500BFF8BC08BC9E467047F8B500BF75
:08544C00F8BC08BC9E46704745
:105454000001020304000000003001400008014084
:0454640000800000C4
:0454680031450008C2
:04546C000D450008E2
:0C54700000127A00100000000100000093
:04000005080050D5CA
:00000001FF
