:020000040800F2
:10400000000000000420010324230000F111911896
:0440100001000000AB
:1044000000500020D5580008055800080D58000835
:10441000155800081D580008255800080000000025
:104420000000000000000000000000002D580008FF
:10443000395800080000000045580008515800088D
:104440001D5900081D5900081D5900081D59000874
:104450001D5900081D5900081D5900081D59000864
:104460001D5900081D5900081D5900081D59000854
:104470001D5900081D5900081D5900081D59000844
:104480001D5900081D5900081D5900081D59000834
:104490001D5900081D5900081D590008F148000861
:1044A0001D5900081D5900081D5900081D59000814
:1044B0001D5900081D5900081D5900081D59000804
:1044C0001D5900081D5900081D5900081D590008F4
:1044D0001D5900081D5900081D5900081D590008E4
:1044E000694900081D5900081D5900080000000016
:1044F00000000000000000000000000000000000BC
:0C45000000000000000000005FF808F15F
:10450C0010B5054C237833B9044B13B10448AFF301
:10451C0000800123237010BD6C00002000000000FF
:10452C004466000808B5034B1BB103490348AFF3BD
:10453C00008008BD000000007000002044660008E8
:10454C0080B584B000AF78600B46FB701346BB702F
:10455C00FB7843F04003DBB23B73BB787B7378682A
:10456C0001F001F907F10C0164230222786801F0D3
:10457C0048F8786801F00BF900BF1037BD4680BDD4
:10458C0080B586B000AFF8600B467A60FB72FB7AA0
:10459C003B75F86801F0E7F807F114016423012278
:1045AC00F86801F02EF8642301227968F86801F0AC
:1045BC008DF8F86801F0EBF800BF1837BD4680BDE8
:1045CC0080B586B000AFF860B9601346FB717A23F2
:1045DC003B75F86801F0C7F807F114016423012258
:1045EC00F86801F00EF8FA796423B968F86801F0FC
:1045FC0008F8F86801F0CBF800BF1837BD4680BD4D
:10460C0080B584B000AF78600B46FB701346BB706E
:10461C00FB7863F07F03DBB23B73BB787B7378680A
:10462C0001F0A1F807F10C0164230222786800F074
:10463C00E8FF786801F0ABF800BF1037BD4680BDCD
:10464C0080B584B000AF78600B46FB701346BB702E
:10465C00FB7863F05F03DBB23B73BB787B737868EA
:10466C0001F081F807F10C0164230222786800F054
:10467C00C8FF786801F08BF800BF1037BD4680BDCD
:10468C0080B586B000AFF860B9601346FB803A2362
:10469C00FB75F86801F067F807F117010A2301228E
:1046AC00F86800F0AEFFFB88DAB26423B968F868EA
:1046BC0001F00CF8F86801F06AF800BF1837BD4635
:1046CC0080BD80B584B000AF7860FF233B73786801
:1046DC0001F049F807F10C0164230122786800F01D
:1046EC0090FF786801F053F800BF1037BD4680BDCD
:1046FC0080B584B000AF786040F2EE53FB817868EF
:10470C00FFF7DFFF142001F067F903221F217868FF
:10471C00FFF796FF002208217868FFF711FF0C22A3
:10472C0009217868FFF70CFFFF220A217868FFF750
:10473C0007FF1F220B217868FFF702FF03221F21BE
:10474C007868FFF77DFF01221F217868FFF758FF7B
:10475C00A02218217868FFF7F3FE03221F21786846
:10476C00FFF76EFF02221F217868FFF749FF0D2229
:10477C0000217868FFF7E4FE312202217868FFF708
:10478C00DFFE402203217868FFF7DAFEFB89DBB2FB
:10479C001A460A217868FFF7D3FEFB891B0A9BB2E5
:1047AC00DBB21A460B217868FFF7CAFE12220421ED
:1047BC007868FFF7C5FE122206217868FFF7C0FE65
:1047CC000C2207217868FFF7BBFE03221F217868B3
:1047DC00FFF716FF212204217868FFF7B1FE55225E
:1047EC0005217868FFF7ACFE442202217868FFF7B8
:1047FC00A7FE332203217868FFF7A2FE22220021B4
:10480C007868FFF79DFE112201217868FFF798FE6A
:10481C0003221F217868FFF713FF04221F217868F9
:10482C00FFF7EEFEC1221B217868FFF789FE00BF5F
:10483C001037BD4680BD000090B595B000AFF86054
:10484C00B9601346FB71264B07F1100418685968C0
:10485C009A68DB680FC407F1200330220021184648
:10486C0001F05EFEBB681B78FB77BB685B7887F852
:10487C002030BB689B7887F8213003221F21F86811
:10488C00FFF7DEFE00220421F868FFF759FE002234
:10489C000521F868FFF754FE00220221F868FFF7A3
:1048AC004FFE00220321F868FFF74AFE07F11003C0
:1048BC0012221946F868FFF783FE11220621F868C8
:1048CC00FFF73EFE00220721F868FFF739FE0822A9
:1048DC001F21F868FFF794FE00BF5437BD4690BD0A
:1048EC005C66000880B400AF184B5B6903F04003B2
:1048FC00002B08D0164B01221A70144B5B69134A1B
:10490C0043F040035361114B5B6903F48073002B3C
:10491C0008D0104B01221A700C4B5B690B4A43F404
:10492C0080735361094B5B6903F40073002B08D04F
:10493C00094B01221A70054B5B69044A43F400735E
:10494C00536100BFBD4680BC704700BF00040140EE
:10495C0096000020990000209700002080B400AF42
:10496C00104B5B6903F48063002B08D00E4B0122C3
:10497C001A700C4B5B690B4A43F480635361094B0F
:10498C005B6903F40063002B08D0084B01221A70FA
:10499C00044B5B69034A43F40063536100BFBD469B
:1049AC0080BC704700040140980000209700002054
:1049BC0080B483B000AF0346FB80074B00225A62E1
:1049CC0000BFFA88044B5B6A9A42FAD800BF00BF5A
:1049DC000C37BD4680BC70470008004080B582B0E3
:1049EC0000AF0346FB8003E04FF47A70FFF7E0FF63
:1049FC00FB885A1EFA80002BF6D100BF00BF083787
:104A0C00BD4680BD80B584B000AF7860082001F051
:104A1C00C9FC0346FB607B68DAB2FB681A70FB6862
:104A2C0000225A60FB6800225A70FB6800229A70C0
:104A3C00FB6818461037BD4680BD000080B584B0B9
:104A4C0000AF786039603B68002B20D07B68002B6E
:104A5C001DD07B68FB6008E0FB685B68FB60FB6853
:104A6C001B781A463B68934213D0FB685B68002B9B
:104A7C00F2D10A4B1B780133DAB2084B1A70386842
:104A8C00FFF7C0FFB860FB68BA685A6002E000BF6D
:104A9C0000E000BF1037BD4680BD00BF9A0000206B
:104AAC0080B584B000AF786039607B68002B26D06D
:104ABC003B68002B23D07B68FB600023BB6004E0C9
:104ACC00FB68BB60FB685B68FB60FB68002B05D078
:104ADC00FB681B781A463B689342F1D1FB68002BAC
:104AEC000FD0FB685A68BB685A60F86801F062FC2A
:104AFC00064B1B78013BDAB2044B1A7002E000BF84
:104B0C0000E000BF1037BD4680BD00BF9A000020FA
:104B1C0080B5A0B000AF00F0FDFE9B4B9B4A9A60A5
:104B2C0062B600BF00F0D4FB00BF994B1B6803F0CA
:104B3C000203002BF9D0964B00225A60944B1B6851
:104B4C00934A43F48033136000BF914B1B6803F40A
:104B5C000033002BF9D08E4BDB698D4A43F0805328
:104B6C00D3618C4B1B688B4A43F010031360894B49
:104B7C001B68884A23F007031360864B1B68854A21
:104B8C0043F002031360824B5B68814A43F4EC13DD
:104B9C0043F4806353607E4B1B687D4A43F0807303
:104BAC00136000BF7A4B1B6803F00073002BF9D025
:104BBC00774B5B68764A43F00203536000BF744B3B
:104BCC005B689B0803F00303022BF8D1704B9B69C5
:104BDC006F4A43F0200393616D4B9B696C4A43F41D
:104BEC00805343F01C0393616B4B1B686A4A9BB266
:104BFC001360694B5B68684A1B0C1B045360664B63
:104C0C005B68654A23F070435360634B1B68624AD0
:104C1C0043F04C7343F4403313605F4B1B685E4AA4
:104C2C0043F0804313605C4B5B685B4A43F040533A
:104C3C005360594B5B68584A43F4884343F0440330
:104C4C005360564B1B68554AC3F30B031360534B0D
:104C5C005B68524A23F0FF035360504B5B684F4A2A
:104C6C009BB253604D4B1B684C4A43F0405313604E
:104C7C004A4B1B68494A43F080631360474B5B689F
:104C8C00464A43F033035360444B5B68434A43F456
:104C9C0040335360414BDB68404A43F46073D3604C
:104CAC003F4BDB683E4A23F47063D3603C4BDB68BC
:104CBC003B4A43F48073D360394B1B69384A23F069
:104CCC000F031361364B1B69354A23F0F003136154
:104CDC00344B1B68334A43F474631360314BDB6809
:104CEC00304A43F47463D3602E4B5B692D4A43F016
:104CFC00400353612B4B5B692A4A43F47063536145
:104D0C00294B1B68284A43F400031360264B5B684D
:104D1C00254A43F480735360204B1B681F4A43F4AD
:104D2C00340343F4304313601D4B5B681C4A43F05F
:104D3C00010353601A4B5B68194A43F0806353605C
:104D4C001A4B00221A60194B4FF447721A60174B1A
:104D5C001B68164A43F0400313600D4BDB690C4A89
:104D6C0043F48043D3610D4B5B680C4A43F03443EE
:104D7C0043F4300353600E4B00221A600C4B4FF47B
:104D8C0047721A6016E000BF00ED00E00044000816
:104D9C00001002400020024000080140000C0140BD
:104DAC00000001400004014000E100E0003001403F
:104DBC0000380040994B1B68984A43F0400313603D
:104DCC00974BDB69964A43F00403D361954B002261
:104DDC005A62944B4FF6FF72DA62924B47229A62F8
:104DEC00904B5B698F4A43F0010353618D4B1B68F9
:104DFC008C4A43F0010313608B4A07F1640392E879
:104E0C0003001860043319800023A7F86A30874A1E
:104E1C0007F1580307CA83E80700854A07F14C03DA
:104E2C0007CA83E8070007F15803184600F052FB45
:104E3C000020FFF7E7FD78677B6F3B677D4A3B6F90
:104E4C0013607D4A3B6F1360002387F87F3000238B
:104E5C0087F87E3007F14C031846FFF749FC002316
:104E6C0087F84B3007F14C0303221F211846FFF73C
:104E7C00E7FB07F14C0301221F211846FFF7C0FB8B
:104E8C0007F14B0207F14C0319211846FFF778FB89
:104E9C000EE007F14C0340221E211846FFF7B0FB31
:104EAC0007F14B0207F14C0319211846FFF768FB79
:104EBC0097F84B30002BECD1002387F87D300C2376
:104ECC0087F87C303220FFF789FD5C4B1B78002B78
:104EDC0000F0E680594B00221A70FA1D07F14C03C2
:104EEC001C211846FFF74CFBFB7903F04003002B09
:104EFC0000F0C88007F14C0303221F211846FFF76E
:104F0C009FFB97F87D2007F14C0300211846FFF713
:104F1C0017FB97F87C2007F14C0301211846FFF78B
:104F2C000FFB394607F14C0306221846FFF7A8FB86
:104F3C003B781AB27B781B021BB213431BB2A7F847
:104F4C006E30BB781AB2FB781B021BB213431BB238
:104F5C00A7F87A303B791AB27B791B021BB2134348
:104F6C001BB2A7F86C303B7887F87D307B7887F8DC
:104F7C007C30B7F86C3003F08003002B44D0B7F8CA
:104F8C007A30402B02D94023A7F87A30B7F87A2030
:104F9C0007F1080107F14C031846FFF771FB3B7D45
:104FAC00082B31D17B7D062B2ED1254BDB68244A77
:104FBC0023F48073D360B97D07F158030722184698
:104FCC0000F0E0FAFB7D012B09D107F16403591CB9
:104FDC0007F158030122184600F0F4FA0BE0FB7DB0
:104FEC00022B08D107F16403991C07F15803012225
:104FFC00184600F0E7FA142000F0EEFC104BDB68CA
:10500C000F4A43F48073D360B7F86E30B3F5406F3A
:10501C0018D841F6FF73A7F8783018E00038004034
:10502C0000100240000800406C660008746600081E
:10503C0080660008A00000209C0000209900002041
:10504C00000C0140B7F86E30013BA7F87830B7F888
:10505C007830DAB207F14C030C211846FFF770FADE
:10506C00B7F878301B0A9BB2DAB207F14C030D216A
:10507C001846FFF765FA07F14C0340221E2118462B
:10508C00FFF7BEFA07F14C0341221C211846FFF72B
:10509C00D7FA07F14C0340221D211846FFF7D0FA2E
:1050AC00834B1B78012B3ED1824B1B681B78002B4A
:1050BC0014D0804B1B68197807F158030722184647
:1050CC0000F060FA07F16403D91C07F158030122C0
:1050DC00184600F077FA3220FFF780FC754B1B68FE
:1050EC005B68744A1360734B1B68002B15D0714BB3
:1050FC001B68197807F158030722184600F042FA8A
:10510C0007F16403991C07F158030122184600F0BB
:10511C0059FA3220FFF762FC02E0664A3B6F1360DB
:10512C00634B00221A70644B1B78012B17D1614B17
:10513C001B68197807F158030722184600F022FA69
:10514C0007F16403591C07F158030122184600F0BB
:10515C0039FA1420FFF742FC574B00221A7097F8CB
:10516C007F305A1C87F87F20272B42D9534B1B6862
:10517C005B68524A1360514B1B68002B05D14F4A98
:10518C003B6F1360002387F87F304C4B1B681B78F8
:10519C00002B2ED0494B1B68197807F158030722B6
:1051AC00184600F0EFF907F16403191D07F15803D5
:1051BC000122184600F006FA002387F87E3002E040
:1051CC000A2000F009FC97F87E305A1C87F87E20E4
:1051DC00312B03D83A4B1B78002BF1D0384B1B7872
:1051EC00002B06D1354B1B681B781946386FFFF71F
:1051FC0057FC334B1B78002B57D0314B00221A70C5
:10520C0007F158000023FF222C2100F0D5F807F1FC
:10521C0058032C4A0021184600F013F9294B5B79EE
:10522C00002B16D1274B1B781946386FFFF706FC5D
:10523C00244B197807F158030722184600F0A2F9FD
:10524C0007F1640107F158030122184600F0BAF97E
:10525C0038E61C4B5B79042B7FF434AE194B1A786F
:10526C00194B1A70174B9A79174B5A70154BDA79F0
:10527C00154B9A70144B1B78002B06D007F14C037E
:10528C00032211491846FFF7D7FA104BDB680F4A77
:10529C0023F08003D3600A20FFF7A0FB0B4BDB68E5
:1052AC000A4A43F08003D3600CE600BF0AE600BF55
:1052BC00980000209C00002097000020A0000020F7
:1052CC00960000208800002000000020000C014007
:1052DC0080B590B000AF07F11803282200211846C2
:1052EC0001F01EF93B1D00221A605A609A60DA60C8
:1052FC001A610223BB610123BB621023FB620023F2
:10530C007B6307F11803184600F06EFC0346002B74
:10531C0001D000F018F80F237B600023BB60002342
:10532C00FB6000233B6100237B613B1D0021184681
:10533C0000F0DCFE0346002B01D000F004F800BFA7
:10534C004037BD4680BD80B400AF72B600BF00BF11
:10535C00FDE780B584B000AF78600B46FB70FB783E
:10536C0063F07F03DBB23B73786800F0FCF907F164
:10537C000C0164230122786800F043F9786800F08E
:10538C0006FA00BF1037BD4680BD80B584B000AFB3
:10539C007860C0233B73786800F0E5F907F10C01E5
:1053AC0064230122786800F02CF9786800F0EFF99A
:1053BC0000BF1037BD4680BD80B584B000AF7860AB
:1053CC00084611461A460346FB700B46BB70134643
:1053DC007B7005233B73FB787B73BB78BB737B784B
:1053EC00FB73786800F0BFF907F10C016423042209
:1053FC00786800F006F9786800F0C9F900BF10373A
:10540C00BD4680BD80B584B000AF78600B46FB70A4
:10541C001346BB7002233B73FB787B73BB78BB7367
:10542C00786800F0A0F907F10C0164230322786876
:10543C0000F0E7F8786800F0AAF900BF1037BD4615
:10544C0080BD80B586B000AFF8600B467A60FB7209
:10545C00FB7A63F06F03DBB23B75F86800F083F9FD
:10546C0007F1140164230122F86800F0CAF86423E0
:10547C000D227968F86800F029F9F86800F087F9CE
:10548C0000BF1837BD4680BD80B586B000AFF86050
:10549C007A601A460B46FB721346BB72FB7A43F0DA
:1054AC004003DBB23B75F86800F05DF907F11401BD
:1054BC0064230122F86800F0A4F8BA7A64237968AE
:1054CC00F86800F09EF8F86800F061F900BF183732
:1054DC00BD4680BD80B582B000AF78607868FFF7BC
:1054EC0054FF0A2000F078FA80220F217868FFF729
:1054FC0089FF002260217868FFF784FF05220C21C8
:10550C007868FFF77FFF01222B217868FFF77AFF7D
:10551C00002220217868FFF775FF0022212178688E
:10552C00FFF770FF002222217868FFF76BFF002243
:10553C0023217868FFF766FF03222A217868FFF79A
:10554C0061FF832229217868FFF75CFF0322282161
:10555C007868FFF757FF00220F217868FFF752FF9A
:10556C000A2000F039FA00222D217868FFF74AFF53
:10557C0000222C217868FFF745FF00BF0837BD4695
:10558C0080BD000080B582B000AF78600B46FB7028
:10559C001346BB70BB785B01DAB2094B1A70FB780F
:1055AC001A4631217868FFF72DFF054B1B781A46F8
:1055BC0032217868FFF726FF00BF0837BD4680BD53
:1055CC00A400002080B584B000AFF860B960134629
:1055DC00FB71FB79082B10D8FB791A463521F8683A
:1055EC00FFF710FFFB79BA680121F868FFF74CFF51
:1055FC000121F868FFF7ADFE00E000BF1037BD4693
:10560C0080BD80B586B000AFF860B96011461A460F
:10561C000B46FB711346BB800023FB751DE0BB885A
:10562C00BB8209E0BB8A5A1EBA82002B01D100232F
:10563C0048E00120FFF7D2F9FB681B689B6803F078
:10564C000203002BEED0FB7DBA6813441A78FB687A
:10565C001B68DA60FB7D0133FB75FA7DFB799A429E
:10566C00DDD3BB88BB8209E0BB8A5A1EBA82002BF1
:10567C0001D1002326E00120FFF7B0F9FB681B687D
:10568C009B6803F00203002BEED0BB88BB8209E0C1
:10569C00BB8A5A1EBA82002B01D1002312E00120D2
:1056AC00FFF79CF9FB681B689B6803F08003002BD9
:1056BC00EED1FB681B68DB68FB74FB681B689B689E
:1056CC00FB74012318461837BD4680BD80B586B0E3
:1056DC0000AFF860B96011461A460B46FB711346D1
:1056EC00BB80BB88FB8222E0BB88FB82FB681B680B
:1056FC000022DA6009E0FB8A5A1EFA82002B01D1E3
:10570C0000232CE00120FFF769F9FB681B689B68FC
:10571C0003F00103002BEED0FB681B68D968BB6853
:10572C005A1CBA60CAB21A70FB79013BFB71FB7947
:10573C00002BD9D1BB88FB8209E0FB8A5A1EFA8266
:10574C00002B01D100230AE00120FFF747F9FB6889
:10575C001B689B6803F08003002BEED101231846D5
:10576C001837BD4680BD80B483B000AF78607B68CD
:10577C005B68DA687B681B89DB4319467B685B686E
:10578C000A40DA6000BF0C37BD4680BC704780B45D
:10579C0083B000AF78607B685B68DA687B681B89D4
:1057AC0019467B685B680A43DA6000BF0C37BD465C
:1057BC0080BC704780B483B000AF0E4B9B690D4A20
:1057CC0043F0010393610B4B9B6903F001037B6076
:1057DC007B68084BDB69074A43F08053D361054B68
:1057EC00DB6903F080533B603B6800BF0C37BD4660
:1057FC0080BC70470010024080B400AF00BFFDE7D2
:10580C0080B400AF00BFFDE780B400AF00BFFDE780
:10581C0080B400AF00BFFDE780B400AF00BFFDE770
:10582C0080B400AF00BFBD4680BC704780B400AFF1
:10583C0000BFBD4680BC704780B400AF00BFBD4602
:10584C0080BC704780B500AF00F0AAF800BF80BDE7
:10585C0080B586B000AF7860144A154BD31A7B61C3
:10586C007B693B61134B1B68002B02D1114B124A15
:10587C001A60104B1A687B6813443A699A4207D233
:10588C0000F066FE03460C221A604FF0FF3309E06D
:10589C00084B1B68FB60074B1A687B681344054A6E
:1058AC001360FB6818461837BD4680BD00500020B9
:1058BC0000040000A8000020F801002080B400AF14
:1058CC0000BFBD4680BC7047FFF7F8FF0B480C4982
:1058DC000C4A002302E0D458C4500433C4188C4240
:1058EC00F9D3094A094C002301E013600432A242A7
:1058FC00FBD300F033FEFFF70BF9704700000020DC
:10590C006C000020B86600086C000020F801002034
:10591C00FEE7000080B500AF084B1B68074A43F058
:10592C0010031360032000F02BF90F2000F008F88F
:10593C00FFF740FF0023184680BD00BF0020024047
:10594C0080B582B000AF7860124B1A68124B1B788E
:10595C0019464FF47A73B3FBF1F3B2FBF3F3184629
:10596C0000F035F90346002B01D001230EE07B68D3
:10597C000F2B0AD8002279684FF0FF3000F00BF99A
:10598C00064A7B681360002300E0012318460837A1
:10599C00BD4680BD1000002018000020140000201F
:1059AC0080B400AF054B1B781A46054B1B6813449B
:1059BC00034A136000BFBD4680BC7047180000202E
:1059CC00AC00002080B400AF024B1B681846BD46EB
:1059DC0080BC7047AC00002080B584B000AF78600C
:1059EC00FFF7F0FFB8607B68FB60FB68B3F1FF3F2B
:1059FC0005D00A4B1B781A46FB681344FB6000BFAA
:105A0C00FFF7E0FF0246BB68D31AFA689A42F7D850
:105A1C0000BF00BF1037BD4680BD00BF180000207E
:105A2C0080B485B000AF78607B6803F00703FB603F
:105A3C000C4BDB68BB60BA684FF6FF031340BB60CE
:105A4C00FB681A02BB68134343F0BF6343F4003393
:105A5C00BB60044ABB68D36000BF1437BD4680BC32
:105A6C00704700BF00ED00E080B400AF044BDB6872
:105A7C001B0A03F007031846BD4680BC704700BFE5
:105A8C0000ED00E080B483B000AF03463960FB71D9
:105A9C0097F90730002B0ADB3B68DAB20C4997F90F
:105AAC0007301201D2B20B4483F800230AE03B68A2
:105ABC00DAB20849FB7903F00F03043B1201D2B2AE
:105ACC000B441A7600BF0C37BD4680BC704700BF34
:105ADC0000E100E000ED00E080B489B000AFF860B8
:105AEC00B9607A60FB6803F00703FB61FB69C3F1E3
:105AFC000703042B28BF0423BB61FB690433062B6B
:105B0C0002D9FB69033B00E000237B614FF0FF32BD
:105B1C00BB6902FA03F3DA43BB681A407B699A400B
:105B2C004FF0FF317B6901FA03F3D9437B680B40DB
:105B3C00134318462437BD4680BC704780B582B0ED
:105B4C0000AF78607B68013BB3F1807F01D3012308
:105B5C000FE00A4A7B68013B53600F214FF0FF3086
:105B6C00FFF790FF054B00229A60044B07221A6046
:105B7C00002318460837BD4680BD00BF10E000E08A
:105B8C0080B582B000AF78607868FFF749FF00BF3E
:105B9C000837BD4680BD80B586B000AF0346B960FE
:105BAC007A60FB7300237B61FFF75EFF78617A6894
:105BBC00B9687869FFF790FF024697F90F301146E4
:105BCC001846FFF75FFF00BF1837BD4680BD80B594
:105BDC0082B000AF78607868FFF7B0FF03461846D4
:105BEC000837BD4680BD000080B586B000AF786038
:105BFC007B68002B01D1012372E27B681B6803F0E8
:105C0C000103002B00F08780924B5B6803F00C03C0
:105C1C00042B0CD08F4B5B6803F00C03082B12D1B8
:105C2C008C4B5B6803F48033B3F5803F0BD1894B0D
:105C3C001B6803F40033002B6CD07B685B68002B73
:105C4C0068D101234CE27B685B68B3F5803F06D1D9
:105C5C00804B1B687F4A43F4803313602EE07B68D3
:105C6C005B68002B0CD17B4B1B687A4A23F4803386
:105C7C001360784B1B68774A23F4802313601DE074
:105C8C007B685B68B3F5A02F0CD1724B1B68714A13
:105C9C0043F4802313606F4B1B686E4A43F48033CC
:105CAC0013600BE06B4B1B686A4A23F48033136060
:105CBC00684B1B68674A23F4802313607B685B681E
:105CCC00002B13D0FFF77EFE386108E0FFF77AFE59
:105CDC0002463B69D31A642B01D9032300E25D4BC6
:105CEC001B6803F40033002BF0D014E0FFF76AFEBE
:105CFC00386108E0FFF766FE02463B69D31A642B55
:105D0C0001D90323ECE1534B1B6803F40033002B44
:105D1C00F0D100E000BF7B681B6803F00203002B8E
:105D2C0063D04C4B5B6803F00C03002B0BD0494B3E
:105D3C005B6803F00C03082B1CD1464B5B6803F427
:105D4C008033002B16D1434B1B6803F00203002B4E
:105D5C0005D07B681B69012B01D00123C0E13D4BB1
:105D6C001B6823F0F8027B685B69DB00394913433D
:105D7C000B603AE07B681B69002B20D0364B01226C
:105D8C001A60FFF71FFE386108E0FFF71BFE0246A2
:105D9C003B69D31A022B01D90323A1E12D4B1B68BC
:105DAC0003F00203002BF0D02A4B1B6823F0F802FF
:105DBC007B685B69DB00274913430B6015E0264BBE
:105DCC0000221A60FFF7FEFD386108E0FFF7FAFDCC
:105DDC0002463B69D31A022B01D9032380E11D4BE8
:105DEC001B6803F00203002BF0D17B681B6803F0E7
:105DFC000803002B3AD07B689B69002B19D0174BFA
:105E0C0001221A60FFF7DEFD386108E0FFF7DAFDCA
:105E1C0002463B69D31A022B01D9032360E10D4BD7
:105E2C005B6A03F00203002BF0D0012000F09CFA17
:105E3C001CE00A4B00221A60FFF7C4FD38610FE02A
:105E4C00FFF7C0FD02463B69D31A022B08D9032386
:105E5C0046E100BF00100240000042428004424272
:105E6C00924B5B6A03F00203002BE9D17B681B6841
:105E7C0003F00403002B00F0A6800023FB758B4B72
:105E8C00DB6903F08053002B0DD1884BDB69874A0B
:105E9C0043F08053D361854BDB6903F08053BB60C7
:105EAC00BB680123FB75824B1B6803F48073002BCA
:105EBC0018D17F4B1B687E4A43F480731360FFF745
:105ECC0081FD386108E0FFF77DFD02463B69D31A7E
:105EDC00642B01D9032303E1754B1B6803F4807316
:105EEC00002BF0D07B68DB68012B06D16F4B1B6A53
:105EFC006E4A43F0010313622DE07B68DB68002BD4
:105F0C000CD16A4B1B6A694A23F001031362674B7D
:105F1C001B6A664A23F0040313621CE07B68DB688F
:105F2C00052B0CD1614B1B6A604A43F004031362CE
:105F3C005E4B1B6A5D4A43F0010313620BE05B4B43
:105F4C001B6A5A4A23F001031362584B1B6A574AC7
:105F5C0023F0040313627B68DB68002B15D0FFF77A
:105F6C0031FD38610AE0FFF72DFD02463B69D31A7B
:105F7C0041F28832934201D90323B1E04B4B1B6AA7
:105F8C0003F00203002BEED014E0FFF71BFD386189
:105F9C000AE0FFF717FD02463B69D31A41F288323B
:105FAC00934201D903239BE0404B1B6A03F002038D
:105FBC00002BEED1FB7D012B05D13C4BDB693B4A21
:105FCC0023F08053D3617B68DB69002B00F0878062
:105FDC00364B5B6803F00C03082B61D07B68DB69E4
:105FEC00022B46D1334B00221A60FFF7EBFC3861D1
:105FFC0008E0FFF7E7FC02463B69D31A022B01D9F4
:10600C0003236DE0294B1B6803F00073002BF0D1C8
:10601C007B681B6AB3F5803F08D1244B5B6823F483
:10602C0000327B689B68214913434B601F4B5B68B4
:10603C0023F474127B68196A7B685B6A0B431B49F7
:10604C0013434B601B4B01221A60FFF7BBFC3861FA
:10605C0008E0FFF7B7FC02463B69D31A022B01D9C3
:10606C0003233DE0114B1B6803F00073002BF0D0B1
:10607C0035E0104B00221A60FFF7A4FC386108E0F1
:10608C00FFF7A0FC02463B69D31A022B01D903236C
:10609C0026E0064B1B6803F00073002BF0D11EE0CA
:1060AC007B68DB69012B07D1012319E0001002404A
:1060BC0000700040600042420B4B5B68FB60FB6869
:1060CC0003F480327B681B6A9A4206D1FB6803F4A6
:1060DC0070127B685B6A9A4201D0012300E00023B6
:1060EC0018461837BD4680BD0010024080B584B0FC
:1060FC0000AF786039607B68002B01D10123D0E0C0
:10610C006A4B1B6803F007033A689A4210D9674B35
:10611C001B6823F0070265493B6813430B60634B14
:10612C001B6803F007033A689A4201D00123B8E0D8
:10613C007B681B6803F00203002B20D07B681B6874
:10614C0003F00403002B05D0594B5B68584A43F409
:10615C00E06353607B681B6803F00803002B05D0D9
:10616C00534B5B68524A43F460535360504B5B682B
:10617C0023F0F0027B689B684D4913434B607B68AE
:10618C001B6803F00103002B40D07B685B68012B7C
:10619C0007D1474B1B6803F40033002B15D10123A7
:1061AC007FE07B685B68022B07D1414B1B6803F0D7
:1061BC000073002B09D1012373E03D4B1B6803F0E6
:1061CC000203002B01D101236BE0394B5B6823F0F8
:1061DC0003027B685B68364913434B60FFF7F2FBA5
:1061EC00F8600AE0FFF7EEFB0246FB68D31A41F2B7
:1061FC008832934201D9032353E02D4B5B6803F0A3
:10620C000C027B685B689B009A42EBD1274B1B68A6
:10621C0003F007033A689A4210D2244B1B6823F010
:10622C00070222493B6813430B60204B1B6803F0A9
:10623C0007033A689A4201D0012332E07B681B685D
:10624C0003F00403002B08D0194B5B6823F4E062C5
:10625C007B68DB68164913434B607B681B6803F053
:10626C000803002B09D0124B5B6823F460527B6847
:10627C001B69DB000E4913434B6000F021F802460A
:10628C000B4B5B681B0903F00F030A49CB5C22FA2A
:10629C0003F3094A1360094B1B681846FFF750FBC0
:1062AC00002318461037BD4680BD00BF00200240B9
:1062BC00001002408C660008100000201400002022
:1062CC0080B487B000AF0023FB600023BB600023C9
:1062DC007B6100237B6000233B611E4B5B68FB6092
:1062EC00FB6803F00C03042B02D0082B03D027E02F
:1062FC00194B3B6127E0FB689B0C03F00F03174A1B
:10630C00D35C7B60FB6803F48033002B10D0114B03
:10631C005B685B0C03F00103114AD35CBB607B68C8
:10632C000D4A03FB02F2BB68B2FBF3F37B6104E0A2
:10633C007B680C4A02FB03F37B617B693B6102E0E7
:10634C00054B3B6100BF3B6918461C37BD4680BC02
:10635C00704700BF0010024000127A009C660008D3
:10636C00AC66000800093D0080B485B000AF7860D1
:10637C000A4B1B680A4AA2FB03235B0A7A6802FBDE
:10638C0003F3FB6000BFFB685A1EFA60002BF9D1C7
:10639C0000BF00BF1437BD4680BC70471000002002
:1063AC00D34D6210024B0146186800F02DB800BFA7
:1063BC001C000020024B0146186800F0F5B800BF25
:1063CC001C00002070B50F4E0C463168054611B903
:1063DC0000F0AEF830602146284600F0A9F8431CC6
:1063EC0003D14FF0FF34204670BDC41C24F00304CD
:1063FC00A042F8D0211A284600F09AF80130F2D1C8
:10640C00EFE700BFB00000202DE9F843CD1C25F0CC
:10641C00030508350C2D38BF0C25002D064601DB75
:10642C00A94204D90C2333600020BDE8F883DFF8BF
:10643C00D48000F069F8D8F800301C4644BB2946DB
:10644C003046FFF7BFFF431C044658D1D8F8004034
:10645C002746002F43D1002C4BD0236839463046B9
:10646C0004EB030900F064F8814542D12168304601
:10647C006D1A2946FFF7A6FF01303AD023682B444A
:10648C002360D8F800305A6862BBC8F800700FE07F
:10649C002268521B20D40B2A17D96119A3422560FC
:1064AC0018BF5960636808BFC8F8001062514B6090
:1064BC00304600F02FF804F10B00231D20F00700EC
:1064CC00C21A1CBF1B1AA350AFE76268A3420CBFD1
:1064DC00C8F800205A60EBE723466468AEE73C46F8
:1064EC007F68B6E71A465B68A342FBD10023536072
:1064FC00DEE70C233046336000F00CF894E70560BF
:10650C00D6E700BFB4000020014800F04BB800BF34
:10651C00F4010020014800F046B800BFF40100204F
:10652C0003460244934200D1704703F8011BF9E77C
:10653C0038B50023054D044608462B60FFF788F953
:10654C00431C02D12B6803B1236038BDF00100203D
:10655C00014B1868704700BF1C00002070B5002666
:10656C000C4D0D4C641BA410A64209D100F064F82C
:10657C0000260A4D0A4C641BA410A64205D170BD1E
:10658C0055F8043B98470136EEE755F8043B98471D
:10659C000136F2E7B0660008B0660008B066000885
:1065AC00B46600087047704738B50546002940D0DE
:1065BC0051F8043C0C1F002BB8BFE418FFF7A4FFE4
:1065CC001C4A136833B9636014602846BDE8384030
:1065DC00FFF7A0BFA34208D9206821188B4201BF46
:1065EC0019685B6809182160EDE71A465B680BB106
:1065FC00A342FAD911685018A0420BD1206801446B
:10660C00501883421160E0D118685B680844106030
:10661C005360DAE702D90C232B60D6E720682118E7
:10662C008B4201BF19685B68091821606360546074
:10663C00CBE738BDB4000020F8B500BFF8BC08BCEF
:10664C009E467047F8B500BFF8BC08BC9E46704724
:10665C000EFFFFFFFFFFFF215544332211080600F8
:10666C00000102030400000000300140000801405A
:10667C000080000000380040000C014000100000B9
:10668C0000000000000000000102030406070809D6
:10669C0002030405060708090A0B0C0D0E0F101057
:0466AC0001020000E7
:0466B0003145000868
:0466B4000D45000888
:1066B80001000000000000000000000000000000D1
:1066C80000127A00100000000100000020000020E5
:1066D80000000000B80000202001002088010020F0
:1066E80000000000000000000000000000000000A2
:1066F8000000000000000000000000000000000092
:106708000000000000000000000000000000000081
:0C67180000000000000000000000000075
:04000005080058D5C2
:00000001FF
